{"abi":[{"type":"constructor","inputs":[],"stateMutability":"nonpayable"},{"type":"function","name":"acceptTransfer","inputs":[{"name":"transferId","type":"uint256","internalType":"uint256"}],"outputs":[],"stateMutability":"nonpayable"},{"type":"function","name":"addressToUserId","inputs":[{"name":"","type":"address","internalType":"address"}],"outputs":[{"name":"","type":"uint256","internalType":"uint256"}],"stateMutability":"view"},{"type":"function","name":"admin","inputs":[],"outputs":[{"name":"","type":"address","internalType":"address"}],"stateMutability":"view"},{"type":"function","name":"burnToken","inputs":[{"name":"tokenId","type":"uint256","internalType":"uint256"}],"outputs":[],"stateMutability":"nonpayable"},{"type":"function","name":"changeStatusUser","inputs":[{"name":"userAddress","type":"address","internalType":"address"},{"name":"newStatus","type":"uint8","internalType":"enum SupplyChain.UserStatus"}],"outputs":[],"stateMutability":"nonpayable"},{"type":"function","name":"createToken","inputs":[{"name":"name","type":"string","internalType":"string"},{"name":"totalSupply","type":"uint256","internalType":"uint256"},{"name":"features","type":"string","internalType":"string"},{"name":"parentId","type":"uint256","internalType":"uint256"}],"outputs":[],"stateMutability":"nonpayable"},{"type":"function","name":"getToken","inputs":[{"name":"tokenId","type":"uint256","internalType":"uint256"}],"outputs":[{"name":"id","type":"uint256","internalType":"uint256"},{"name":"creator","type":"address","internalType":"address"},{"name":"name","type":"string","internalType":"string"},{"name":"totalSupply","type":"uint256","internalType":"uint256"},{"name":"features","type":"string","internalType":"string"},{"name":"parentId","type":"uint256","internalType":"uint256"},{"name":"dateCreated","type":"uint256","internalType":"uint256"},{"name":"burned","type":"bool","internalType":"bool"}],"stateMutability":"view"},{"type":"function","name":"getTokenBalance","inputs":[{"name":"tokenId","type":"uint256","internalType":"uint256"},{"name":"userAddress","type":"address","internalType":"address"}],"outputs":[{"name":"","type":"uint256","internalType":"uint256"}],"stateMutability":"view"},{"type":"function","name":"getTransfer","inputs":[{"name":"transferId","type":"uint256","internalType":"uint256"}],"outputs":[{"name":"id","type":"uint256","internalType":"uint256"},{"name":"from","type":"address","internalType":"address"},{"name":"to","type":"address","internalType":"address"},{"name":"tokenId","type":"uint256","internalType":"uint256"},{"name":"dateCreated","type":"uint256","internalType":"uint256"},{"name":"amount","type":"uint256","internalType":"uint256"},{"name":"status","type":"uint8","internalType":"enum SupplyChain.TransferStatus"}],"stateMutability":"view"},{"type":"function","name":"getUserInfo","inputs":[{"name":"userAddress","type":"address","internalType":"address"}],"outputs":[{"name":"id","type":"uint256","internalType":"uint256"},{"name":"userAddr","type":"address","internalType":"address"},{"name":"role","type":"string","internalType":"string"},{"name":"status","type":"uint8","internalType":"enum SupplyChain.UserStatus"}],"stateMutability":"view"},{"type":"function","name":"getUserTokens","inputs":[{"name":"userAddress","type":"address","internalType":"address"}],"outputs":[{"name":"","type":"uint256[]","internalType":"uint256[]"}],"stateMutability":"view"},{"type":"function","name":"getUserTransfers","inputs":[{"name":"userAddress","type":"address","internalType":"address"}],"outputs":[{"name":"","type":"uint256[]","internalType":"uint256[]"}],"stateMutability":"view"},{"type":"function","name":"isAdmin","inputs":[{"name":"userAddress","type":"address","internalType":"address"}],"outputs":[{"name":"","type":"bool","internalType":"bool"}],"stateMutability":"view"},{"type":"function","name":"nextTokenId","inputs":[],"outputs":[{"name":"","type":"uint256","internalType":"uint256"}],"stateMutability":"view"},{"type":"function","name":"nextTransferId","inputs":[],"outputs":[{"name":"","type":"uint256","internalType":"uint256"}],"stateMutability":"view"},{"type":"function","name":"nextUserId","inputs":[],"outputs":[{"name":"","type":"uint256","internalType":"uint256"}],"stateMutability":"view"},{"type":"function","name":"rejectTransfer","inputs":[{"name":"transferId","type":"uint256","internalType":"uint256"}],"outputs":[],"stateMutability":"nonpayable"},{"type":"function","name":"requestUserRole","inputs":[{"name":"role","type":"string","internalType":"string"}],"outputs":[],"stateMutability":"nonpayable"},{"type":"function","name":"tokens","inputs":[{"name":"","type":"uint256","internalType":"uint256"}],"outputs":[{"name":"id","type":"uint256","internalType":"uint256"},{"name":"creator","type":"address","internalType":"address"},{"name":"name","type":"string","internalType":"string"},{"name":"totalSupply","type":"uint256","internalType":"uint256"},{"name":"features","type":"string","internalType":"string"},{"name":"parentId","type":"uint256","internalType":"uint256"},{"name":"dateCreated","type":"uint256","internalType":"uint256"},{"name":"burned","type":"bool","internalType":"bool"}],"stateMutability":"view"},{"type":"function","name":"transfer","inputs":[{"name":"to","type":"address","internalType":"address"},{"name":"tokenId","type":"uint256","internalType":"uint256"},{"name":"amount","type":"uint256","internalType":"uint256"}],"outputs":[],"stateMutability":"nonpayable"},{"type":"function","name":"transfers","inputs":[{"name":"","type":"uint256","internalType":"uint256"}],"outputs":[{"name":"id","type":"uint256","internalType":"uint256"},{"name":"from","type":"address","internalType":"address"},{"name":"to","type":"address","internalType":"address"},{"name":"tokenId","type":"uint256","internalType":"uint256"},{"name":"dateCreated","type":"uint256","internalType":"uint256"},{"name":"amount","type":"uint256","internalType":"uint256"},{"name":"status","type":"uint8","internalType":"enum SupplyChain.TransferStatus"}],"stateMutability":"view"},{"type":"function","name":"users","inputs":[{"name":"","type":"uint256","internalType":"uint256"}],"outputs":[{"name":"id","type":"uint256","internalType":"uint256"},{"name":"userAddress","type":"address","internalType":"address"},{"name":"role","type":"string","internalType":"string"},{"name":"status","type":"uint8","internalType":"enum SupplyChain.UserStatus"}],"stateMutability":"view"},{"type":"event","name":"TokenBurned","inputs":[{"name":"tokenId","type":"uint256","indexed":true,"internalType":"uint256"},{"name":"burner","type":"address","indexed":true,"internalType":"address"}],"anonymous":false},{"type":"event","name":"TokenCreated","inputs":[{"name":"tokenId","type":"uint256","indexed":true,"internalType":"uint256"},{"name":"creator","type":"address","indexed":true,"internalType":"address"},{"name":"name","type":"string","indexed":false,"internalType":"string"},{"name":"totalSupply","type":"uint256","indexed":false,"internalType":"uint256"},{"name":"parentId","type":"uint256","indexed":false,"internalType":"uint256"}],"anonymous":false},{"type":"event","name":"TransferAccepted","inputs":[{"name":"transferId","type":"uint256","indexed":true,"internalType":"uint256"}],"anonymous":false},{"type":"event","name":"TransferRejected","inputs":[{"name":"transferId","type":"uint256","indexed":true,"internalType":"uint256"}],"anonymous":false},{"type":"event","name":"TransferRequested","inputs":[{"name":"transferId","type":"uint256","indexed":true,"internalType":"uint256"},{"name":"from","type":"address","indexed":true,"internalType":"address"},{"name":"to","type":"address","indexed":true,"internalType":"address"},{"name":"tokenId","type":"uint256","indexed":false,"internalType":"uint256"},{"name":"amount","type":"uint256","indexed":false,"internalType":"uint256"}],"anonymous":false},{"type":"event","name":"UserRoleRequested","inputs":[{"name":"user","type":"address","indexed":true,"internalType":"address"},{"name":"role","type":"string","indexed":false,"internalType":"string"}],"anonymous":false},{"type":"event","name":"UserStatusChanged","inputs":[{"name":"user","type":"address","indexed":true,"internalType":"address"},{"name":"status","type":"uint8","indexed":false,"internalType":"enum SupplyChain.UserStatus"}],"anonymous":false},{"type":"error","name":"AlreadyRegistered","inputs":[]},{"type":"error","name":"CannotTransferToSelf","inputs":[]},{"type":"error","name":"InsufficientBalance","inputs":[]},{"type":"error","name":"InvalidRole","inputs":[]},{"type":"error","name":"InvalidTransferDirection","inputs":[]},{"type":"error","name":"NotAdmin","inputs":[]},{"type":"error","name":"NotApproved","inputs":[]},{"type":"error","name":"NotTransferRecipient","inputs":[]},{"type":"error","name":"OnlyConsumerCanBurn","inputs":[]},{"type":"error","name":"ParentTokenBurned","inputs":[]},{"type":"error","name":"ParentTokenNotFound","inputs":[]},{"type":"error","name":"TokenAlreadyBurned","inputs":[]},{"type":"error","name":"TokenNotFound","inputs":[]},{"type":"error","name":"TransferNotFound","inputs":[]},{"type":"error","name":"TransferNotPending","inputs":[]},{"type":"error","name":"UserNotFound","inputs":[]},{"type":"error","name":"ZeroAmount","inputs":[]}],"bytecode":{"object":"0x6080604052600180556001600255600160035534801561001e57600080fd5b50600080546001600160a01b0319163317905561249c806100406000396000f3fe608060405234801561001057600080fd5b50600436106101425760003560e01c80638782dc00116100b8578063b85b381b1161007c578063b85b381b14610330578063c16fe90714610339578063d67b2d081461034c578063e4b50cb81461035f578063ef57e2d214610372578063f851a4401461038557600080fd5b80638782dc00146102735780638b2d19c0146102865780639377d71114610299578063a1e6a25514610307578063b5ffbbcc1461031057600080fd5b8063365b98b21161010a578063365b98b2146101d95780634f64b2be146101fc578063519dc8d2146102235780636386c1c71461023657806375794a3c146102495780637b47ec1a1461026057600080fd5b8063095bcdb61461014757806312effc321461015c57806324d7806c1461016f578063274fae7c146101a6578063335d3410146101b9575b600080fd5b61015a610155366004611e70565b6103b0565b005b61015a61016a366004611ea3565b6108a2565b61019161017d366004611ebc565b6000546001600160a01b0391821691161490565b60405190151581526020015b60405180910390f35b61015a6101b4366004611ea3565b610a37565b6101cc6101c7366004611ebc565b610bcf565b60405161019d9190611ede565b6101ec6101e7366004611ea3565b610c3b565b60405161019d9493929190611f92565b61020f61020a366004611ea3565b610cf9565b60405161019d989796959493929190611fd4565b6101cc610231366004611ebc565b610e59565b6101ec610244366004611ebc565b610ec3565b61025260015481565b60405190815260200161019d565b61015a61026e366004611ea3565b610fd1565b61015a61028136600461203c565b611285565b61015a61029436600461211a565b611367565b6102f46102a7366004611ea3565b6005602081905260009182526040909120805460018201546002830154600384015460048501549585015460069095015493956001600160a01b0393841695939092169390929060ff1687565b60405161019d9796959493929190612157565b61025260035481565b61025261031e366004611ebc565b60076020526000908152604090205481565b61025260025481565b6102f4610347366004611ea3565b6114a1565b61015a61035a3660046121ac565b611530565b61020f61036d366004611ea3565b6118cb565b610252610380366004612221565b611a91565b600054610398906001600160a01b031681565b6040516001600160a01b03909116815260200161019d565b33600090815260076020526040812054908190036103e15760405163c19f17a960e01b815260040160405180910390fd5b6001600082815260066020526040902060039081015460ff169081111561040a5761040a611f68565b146104285760405163c19f17a960e01b815260040160405180910390fd5b8160000361044957604051631f2a200560e01b815260040160405180910390fd5b336001600160a01b0385160361047257604051636d6c4ee560e11b815260040160405180910390fd5b60008381526004602052604081205490036104a057604051630cbdb7b360e41b815260040160405180910390fd5b60008381526004602052604090206007015460ff16156104d35760405163457af9cb60e11b815260040160405180910390fd5b600083815260046020908152604080832033845260080190915290205482111561051057604051631e9acf1760e31b815260040160405180910390fd5b33600090815260076020526040808220546001600160a01b0387168352908220549091819003610553576040516319c29a3360e21b815260040160405180910390fd5b6001600082815260066020526040902060039081015460ff169081111561057c5761057c611f68565b1461059a5760405163c19f17a960e01b815260040160405180910390fd5b600082815260066020526040902060020180546106da91906105bb9061224d565b80601f01602080910402602001604051908101604052809291908181526020018280546105e79061224d565b80156106345780601f1061060957610100808354040283529160200191610634565b820191906000526020600020905b81548152906001019060200180831161061757829003601f168201915b50505060008581526006602052604090206002018054909250610657915061224d565b80601f01602080910402602001604051908101604052809291908181526020018280546106839061224d565b80156106d05780601f106106a5576101008083540402835291602001916106d0565b820191906000526020600020905b8154815290600101906020018083116106b357829003601f168201915b5050505050611abe565b60008581526004602090815260408083203384526008019091528120805486929061070690849061229d565b9091555050600280546000918261071c836122b0565b9190505590506040518060e00160405280828152602001336001600160a01b03168152602001886001600160a01b031681526020018781526020014281526020018681526020016000600281111561077657610776611f68565b90526000828152600560208181526040928390208451815590840151600180830180546001600160a01b039384166001600160a01b0319918216179091559486015160028085018054929094169190961617909155606085015160038301556080850151600483015560a08501519282019290925560c084015160068201805492949193909260ff191691849081111561081257610812611f68565b021790555050336000818152600960209081526040808320805460018082018355918552838520018790556001600160a01b038d16808552828520805492830181558552938390200186905580518b81529182018a905291935084917fc8262dc04f8f56abc884e1f58ca17a373610558a6cebc5e927b9e1c4668e5fdf910160405180910390a450505050505050565b33600090815260076020526040812054908190036108d35760405163c19f17a960e01b815260040160405180910390fd5b6001600082815260066020526040902060039081015460ff16908111156108fc576108fc611f68565b1461091a5760405163c19f17a960e01b815260040160405180910390fd5b6000828152600560205260408120805490910361094a57604051632b44303360e11b815260040160405180910390fd5b6000600682015460ff16600281111561096557610965611f68565b14610983576040516308cd5ef960e31b815260040160405180910390fd5b60028101546001600160a01b031633146109b057604051632fe6cf8360e21b815260040160405180910390fd5b60068101805460ff1916600217905560058101546003820154600090815260046020908152604080832060018601546001600160a01b0316845260080190915281208054909190610a029084906122c9565b909155505060405183907f1f4f8a94e17d25044030f376d297769c8f9a1a2a0616e36b498a1e7370b5863f90600090a2505050565b3360009081526007602052604081205490819003610a685760405163c19f17a960e01b815260040160405180910390fd5b6001600082815260066020526040902060039081015460ff1690811115610a9157610a91611f68565b14610aaf5760405163c19f17a960e01b815260040160405180910390fd5b60008281526005602052604081208054909103610adf57604051632b44303360e11b815260040160405180910390fd5b6000600682015460ff166002811115610afa57610afa611f68565b14610b18576040516308cd5ef960e31b815260040160405180910390fd5b60028101546001600160a01b03163314610b4557604051632fe6cf8360e21b815260040160405180910390fd5b60068101805460ff1916600117905560058101546003820154600090815260046020908152604080832033845260080190915281208054909190610b8a9084906122c9565b92505081905550610b9f338260030154611c94565b60405183907f91dd4234b45d77221e6eca52c141569a6d0f3b3ffe9b8a18fe8b9aafbc64b44b90600090a2505050565b6001600160a01b038116600090815260096020908152604091829020805483518184028101840190945280845260609392830182828015610c2f57602002820191906000526020600020905b815481526020019060010190808311610c1b575b50505050509050919050565b60066020526000908152604090208054600182015460028301805492936001600160a01b0390921692610c6d9061224d565b80601f0160208091040260200160405190810160405280929190818152602001828054610c999061224d565b8015610ce65780601f10610cbb57610100808354040283529160200191610ce6565b820191906000526020600020905b815481529060010190602001808311610cc957829003601f168201915b5050506003909301549192505060ff1684565b60046020526000908152604090208054600182015460028301805492936001600160a01b0390921692610d2b9061224d565b80601f0160208091040260200160405190810160405280929190818152602001828054610d579061224d565b8015610da45780601f10610d7957610100808354040283529160200191610da4565b820191906000526020600020905b815481529060010190602001808311610d8757829003601f168201915b505050505090806003015490806004018054610dbf9061224d565b80601f0160208091040260200160405190810160405280929190818152602001828054610deb9061224d565b8015610e385780601f10610e0d57610100808354040283529160200191610e38565b820191906000526020600020905b815481529060010190602001808311610e1b57829003601f168201915b50505050600583015460068401546007909401549293909290915060ff1688565b6001600160a01b038116600090815260086020908152604091829020805483518184028101840190945280845260609392830182828015610c2f5760200282019190600052602060002090815481526020019060010190808311610c1b5750505050509050919050565b6001600160a01b03811660009081526007602052604081205481906060908290808203610f03576040516319c29a3360e21b815260040160405180910390fd5b60008181526006602052604090208054600182015460038301546002840180546001600160a01b0390931692909160ff16908290610f409061224d565b80601f0160208091040260200160405190810160405280929190818152602001828054610f6c9061224d565b8015610fb95780601f10610f8e57610100808354040283529160200191610fb9565b820191906000526020600020905b815481529060010190602001808311610f9c57829003601f168201915b50505050509150955095509550955050509193509193565b33600090815260076020526040812054908190036110025760405163c19f17a960e01b815260040160405180910390fd5b6001600082815260066020526040902060039081015460ff169081111561102b5761102b611f68565b146110495760405163c19f17a960e01b815260040160405180910390fd5b600082815260046020526040812054900361107757604051630cbdb7b360e41b815260040160405180910390fd5b60008281526004602052604090206007015460ff16156110aa5760405163457af9cb60e11b815260040160405180910390fd5b33600090815260076020908152604080832054808452600690925290912060020180546111a791906110db9061224d565b80601f01602080910402602001604051908101604052809291908181526020018280546111079061224d565b80156111545780601f1061112957610100808354040283529160200191611154565b820191906000526020600020905b81548152906001019060200180831161113757829003601f168201915b505060408051808201909152600881526731b7b739bab6b2b960c11b60209182015284519401939093207fd4af56a6cb216435050293f7c860ecd82c7b78b5ce1cf71dcb725bc26a5c8cab149392505050565b6111c457604051639e7cf39760e01b815260040160405180910390fd5b6000838152600460209081526040808320338452600801909152812054900361120057604051631e9acf1760e31b815260040160405180910390fd5b60008381526004602081815260408084203385526008810183529084208054908590558785529290915260078101805460ff1916600117905560030180549192839261124d90849061229d565b9091555050604051339085907f33631bcd0a4d34a7e2c240ab0753d5adfb7284d8ac89dab6876ec785c0cfa0e690600090a350505050565b6000546001600160a01b031633146112b057604051637bfa4b9f60e01b815260040160405180910390fd5b6001600160a01b038216600090815260076020526040812054908190036112ea576040516319c29a3360e21b815260040160405180910390fd5b600081815260066020526040902060039081018054849260ff1990911690600190849081111561131c5761131c611f68565b0217905550826001600160a01b03167fb3b609c7a5e504a312603e90d906d1667fd5caff0a840ad07bf5709a3ca1a0458360405161135a91906122dc565b60405180910390a2505050565b336000908152600760205260409020541561139557604051630ea075bf60e21b815260040160405180910390fd5b61139e81611d0a565b60038054600091826113af836122b0565b909155506040805160808101825282815233602080830191825282840187815260006060850181905286815260069092529390208251815590516001820180546001600160a01b0319166001600160a01b03909216919091179055915192935091600282019061141f9082612338565b5060608201518160030160006101000a81548160ff0219169083600381111561144a5761144a611f68565b0217905550503360008181526007602052604090819020849055519091507f713064be2b63db5e6f672d3804bef390205dcf7b58bf7a978b9c31a4d05f39f0906114959085906123f8565b60405180910390a25050565b60008181526005602052604081205481908190819081908190819081036114db57604051632b44303360e11b815260040160405180910390fd5b50505060009485525050600560208190526040909320805460018201546002830154600384015460048501549785015460069095015493986001600160a01b0393841698939092169650945090929160ff1690565b33600090815260076020526040812054908190036115615760405163c19f17a960e01b815260040160405180910390fd5b6001600082815260066020526040902060039081015460ff169081111561158a5761158a611f68565b146115a85760405163c19f17a960e01b815260040160405180910390fd5b836000036115c957604051631f2a200560e01b815260040160405180910390fd5b336000908152600760209081526040808320548084526006909252822060020180549192916115f79061224d565b80601f01602080910402602001604051908101604052809291908181526020018280546116239061224d565b80156116705780601f1061164557610100808354040283529160200191611670565b820191906000526020600020905b81548152906001019060200180831161165357829003601f168201915b50505050509050836000036116e957604080518082019091526008815267383937b23ab1b2b960c11b6020918201528151908201207fe8a771116431fd497933c982e9f1e2baea13d28ed5c5faf7e60dd163b2619256146116e457604051636caa20b560e11b815260040160405180910390fd5b6117d8565b604080518082019091526007815266666163746f727960c81b6020918201528151908201206000805160206124478339815191521461173b57604051636caa20b560e11b815260040160405180910390fd5b60008481526004602052604081205490036117695760405163e989fd4560e01b815260040160405180910390fd5b60008481526004602052604090206007015460ff161561179c5760405163a84e6b9360e01b815260040160405180910390fd5b600084815260046020908152604080832033845260080190915281205490036117d857604051631e9acf1760e31b815260040160405180910390fd5b60018054600091826117e9836122b0565b9091555060008181526004602052604090208181556001810180546001600160a01b03191633179055909150600281016118238a82612338565b5060038101889055600481016118398882612338565b506005810186905542600682015560078101805460ff191690553360008181526008808401602090815260408084208d9055918152818320805460018101825590845292209091018490555183907fe313f3cd9ae486881b5fc4f296f8639c18f70f45e34009de3ad8c25816a095f4906118b8908d908d908c9061240b565b60405180910390a3505050505050505050565b6000806060600060606000806000600460008a81526020019081526020016000206000015460000361191057604051630cbdb7b360e41b815260040160405180910390fd5b6000898152600460208190526040909120805460018201546003830154600584015460068501546007860154600287018054979896976001600160a01b0390961696909590890193929160ff169086906119699061224d565b80601f01602080910402602001604051908101604052809291908181526020018280546119959061224d565b80156119e25780601f106119b7576101008083540402835291602001916119e2565b820191906000526020600020905b8154815290600101906020018083116119c557829003601f168201915b505050505095508380546119f59061224d565b80601f0160208091040260200160405190810160405280929190818152602001828054611a219061224d565b8015611a6e5780601f10611a4357610100808354040283529160200191611a6e565b820191906000526020600020905b815481529060010190602001808311611a5157829003601f168201915b505050505093509850985098509850985098509850985050919395975091939597565b60008281526004602090815260408083206001600160a01b03851684526008019091529020545b92915050565b604080518082019091526008815267383937b23ab1b2b960c11b6020918201528251908301206000907fe8a771116431fd497933c982e9f1e2baea13d28ed5c5faf7e60dd163b2619256148015611b465750604080518082019091526007815266666163746f727960c81b602091820152825190830120600080516020612447833981519152145b80611bd15750604080518082019091526007815266666163746f727960c81b602091820152835190840120600080516020612447833981519152148015611bd157506040805180820190915260088152673932ba30b4b632b960c11b6020918201528251908301207f35720142b9ab11c25c53ca13befe9fb19c96957cb76a5f2f70547e5eb0c912d7145b80611c6f57506040805180820190915260088152673932ba30b4b632b960c11b6020918201528351908401207f35720142b9ab11c25c53ca13befe9fb19c96957cb76a5f2f70547e5eb0c912d7148015611c6f575060408051808201909152600881526731b7b739bab6b2b960c11b6020918201528251908301207fd4af56a6cb216435050293f7c860ecd82c7b78b5ce1cf71dcb725bc26a5c8cab145b905080611c8f57604051630ea3ffc960e41b815260040160405180910390fd5b505050565b6001600160a01b0382166000908152600860205260408120905b8154811015611cf25782828281548110611cca57611cca612430565b906000526020600020015403611ce05750505050565b80611cea816122b0565b915050611cae565b50805460018101825560009182526020909120015550565b604080518082019091526008815267383937b23ab1b2b960c11b6020918201528151908201207fe8a771116431fd497933c982e9f1e2baea13d28ed5c5faf7e60dd163b261925614158015611d915750604080518082019091526007815266666163746f727960c81b60209182015281519082012060008051602061244783398151915214155b8015611de257506040805180820190915260088152673932ba30b4b632b960c11b6020918201528151908201207f35720142b9ab11c25c53ca13befe9fb19c96957cb76a5f2f70547e5eb0c912d714155b8015611e33575060408051808201909152600881526731b7b739bab6b2b960c11b6020918201528151908201207fd4af56a6cb216435050293f7c860ecd82c7b78b5ce1cf71dcb725bc26a5c8cab14155b15611e5157604051636caa20b560e11b815260040160405180910390fd5b50565b80356001600160a01b0381168114611e6b57600080fd5b919050565b600080600060608486031215611e8557600080fd5b611e8e84611e54565b95602085013595506040909401359392505050565b600060208284031215611eb557600080fd5b5035919050565b600060208284031215611ece57600080fd5b611ed782611e54565b9392505050565b6020808252825182820181905260009190848201906040850190845b81811015611f1657835183529284019291840191600101611efa565b50909695505050505050565b6000815180845260005b81811015611f4857602081850181015186830182015201611f2c565b506000602082860101526020601f19601f83011685010191505092915050565b634e487b7160e01b600052602160045260246000fd5b60048110611f8e57611f8e611f68565b9052565b8481526001600160a01b0384166020820152608060408201819052600090611fbc90830185611f22565b9050611fcb6060830184611f7e565b95945050505050565b8881526001600160a01b038816602082015261010060408201819052600090611fff8382018a611f22565b905087606084015282810360808401526120198188611f22565b60a0840196909652505060c0810192909252151560e09091015295945050505050565b6000806040838503121561204f57600080fd5b61205883611e54565b915060208301356004811061206c57600080fd5b809150509250929050565b634e487b7160e01b600052604160045260246000fd5b600082601f83011261209e57600080fd5b813567ffffffffffffffff808211156120b9576120b9612077565b604051601f8301601f19908116603f011681019082821181831017156120e1576120e1612077565b816040528381528660208588010111156120fa57600080fd5b836020870160208301376000602085830101528094505050505092915050565b60006020828403121561212c57600080fd5b813567ffffffffffffffff81111561214357600080fd5b61214f8482850161208d565b949350505050565b8781526001600160a01b03878116602083015286166040820152606081018590526080810184905260a0810183905260e081016003831061219a5761219a611f68565b8260c083015298975050505050505050565b600080600080608085870312156121c257600080fd5b843567ffffffffffffffff808211156121da57600080fd5b6121e68883890161208d565b955060208701359450604087013591508082111561220357600080fd5b506122108782880161208d565b949793965093946060013593505050565b6000806040838503121561223457600080fd5b8235915061224460208401611e54565b90509250929050565b600181811c9082168061226157607f821691505b60208210810361228157634e487b7160e01b600052602260045260246000fd5b50919050565b634e487b7160e01b600052601160045260246000fd5b81810381811115611ab857611ab8612287565b6000600182016122c2576122c2612287565b5060010190565b80820180821115611ab857611ab8612287565b60208101611ab88284611f7e565b601f821115611c8f57600081815260208120601f850160051c810160208610156123115750805b601f850160051c820191505b818110156123305782815560010161231d565b505050505050565b815167ffffffffffffffff81111561235257612352612077565b61236681612360845461224d565b846122ea565b602080601f83116001811461239b57600084156123835750858301515b600019600386901b1c1916600185901b178555612330565b600085815260208120601f198616915b828110156123ca578886015182559484019460019091019084016123ab565b50858210156123e85787850151600019600388901b60f8161c191681555b5050505050600190811b01905550565b602081526000611ed76020830184611f22565b60608152600061241e6060830186611f22565b60208301949094525060400152919050565b634e487b7160e01b600052603260045260246000fdfee366a98476020cb9ff8cc566d0cdeac414e546d2e7ede445f4e7032a4272c771a2646970667358221220d80684582ebaeaacebda6a716b0b9b84090824f8736a362114dc0b6568d1866264736f6c63430008130033","linkReferences":{}},"methodIdentifiers":{"acceptTransfer(uint256)":"274fae7c","addressToUserId(address)":"b5ffbbcc","admin()":"f851a440","burnToken(uint256)":"7b47ec1a","changeStatusUser(address,uint8)":"8782dc00","createToken(string,uint256,string,uint256)":"d67b2d08","getToken(uint256)":"e4b50cb8","getTokenBalance(uint256,address)":"ef57e2d2","getTransfer(uint256)":"c16fe907","getUserInfo(address)":"6386c1c7","getUserTokens(address)":"519dc8d2","getUserTransfers(address)":"335d3410","isAdmin(address)":"24d7806c","nextTokenId()":"75794a3c","nextTransferId()":"b85b381b","nextUserId()":"a1e6a255","rejectTransfer(uint256)":"12effc32","requestUserRole(string)":"8b2d19c0","tokens(uint256)":"4f64b2be","transfer(address,uint256,uint256)":"095bcdb6","transfers(uint256)":"9377d711","users(uint256)":"365b98b2"},"id":21}