{"abi":[{"type":"constructor","inputs":[],"stateMutability":"nonpayable"},{"type":"function","name":"acceptTransfer","inputs":[{"name":"transferId","type":"uint256","internalType":"uint256"}],"outputs":[],"stateMutability":"nonpayable"},{"type":"function","name":"addressToUserId","inputs":[{"name":"","type":"address","internalType":"address"}],"outputs":[{"name":"","type":"uint256","internalType":"uint256"}],"stateMutability":"view"},{"type":"function","name":"admin","inputs":[],"outputs":[{"name":"","type":"address","internalType":"address"}],"stateMutability":"view"},{"type":"function","name":"burnToken","inputs":[{"name":"tokenId","type":"uint256","internalType":"uint256"}],"outputs":[],"stateMutability":"nonpayable"},{"type":"function","name":"changeStatusUser","inputs":[{"name":"userAddress","type":"address","internalType":"address"},{"name":"newStatus","type":"uint8","internalType":"enum SupplyChain.UserStatus"}],"outputs":[],"stateMutability":"nonpayable"},{"type":"function","name":"consumeRawMaterial","inputs":[{"name":"tokenId","type":"uint256","internalType":"uint256"},{"name":"amount","type":"uint256","internalType":"uint256"}],"outputs":[],"stateMutability":"nonpayable"},{"type":"function","name":"createToken","inputs":[{"name":"name","type":"string","internalType":"string"},{"name":"totalSupply","type":"uint256","internalType":"uint256"},{"name":"features","type":"string","internalType":"string"},{"name":"parentId","type":"uint256","internalType":"uint256"}],"outputs":[],"stateMutability":"nonpayable"},{"type":"function","name":"getToken","inputs":[{"name":"tokenId","type":"uint256","internalType":"uint256"}],"outputs":[{"name":"id","type":"uint256","internalType":"uint256"},{"name":"creator","type":"address","internalType":"address"},{"name":"name","type":"string","internalType":"string"},{"name":"totalSupply","type":"uint256","internalType":"uint256"},{"name":"features","type":"string","internalType":"string"},{"name":"parentId","type":"uint256","internalType":"uint256"},{"name":"dateCreated","type":"uint256","internalType":"uint256"},{"name":"burned","type":"bool","internalType":"bool"}],"stateMutability":"view"},{"type":"function","name":"getTokenBalance","inputs":[{"name":"tokenId","type":"uint256","internalType":"uint256"},{"name":"userAddress","type":"address","internalType":"address"}],"outputs":[{"name":"","type":"uint256","internalType":"uint256"}],"stateMutability":"view"},{"type":"function","name":"getTransfer","inputs":[{"name":"transferId","type":"uint256","internalType":"uint256"}],"outputs":[{"name":"id","type":"uint256","internalType":"uint256"},{"name":"from","type":"address","internalType":"address"},{"name":"to","type":"address","internalType":"address"},{"name":"tokenId","type":"uint256","internalType":"uint256"},{"name":"dateCreated","type":"uint256","internalType":"uint256"},{"name":"amount","type":"uint256","internalType":"uint256"},{"name":"status","type":"uint8","internalType":"enum SupplyChain.TransferStatus"}],"stateMutability":"view"},{"type":"function","name":"getUserInfo","inputs":[{"name":"userAddress","type":"address","internalType":"address"}],"outputs":[{"name":"id","type":"uint256","internalType":"uint256"},{"name":"userAddr","type":"address","internalType":"address"},{"name":"role","type":"string","internalType":"string"},{"name":"status","type":"uint8","internalType":"enum SupplyChain.UserStatus"}],"stateMutability":"view"},{"type":"function","name":"getUserTokens","inputs":[{"name":"userAddress","type":"address","internalType":"address"}],"outputs":[{"name":"","type":"uint256[]","internalType":"uint256[]"}],"stateMutability":"view"},{"type":"function","name":"getUserTransfers","inputs":[{"name":"userAddress","type":"address","internalType":"address"}],"outputs":[{"name":"","type":"uint256[]","internalType":"uint256[]"}],"stateMutability":"view"},{"type":"function","name":"isAdmin","inputs":[{"name":"userAddress","type":"address","internalType":"address"}],"outputs":[{"name":"","type":"bool","internalType":"bool"}],"stateMutability":"view"},{"type":"function","name":"nextTokenId","inputs":[],"outputs":[{"name":"","type":"uint256","internalType":"uint256"}],"stateMutability":"view"},{"type":"function","name":"nextTransferId","inputs":[],"outputs":[{"name":"","type":"uint256","internalType":"uint256"}],"stateMutability":"view"},{"type":"function","name":"nextUserId","inputs":[],"outputs":[{"name":"","type":"uint256","internalType":"uint256"}],"stateMutability":"view"},{"type":"function","name":"rejectTransfer","inputs":[{"name":"transferId","type":"uint256","internalType":"uint256"}],"outputs":[],"stateMutability":"nonpayable"},{"type":"function","name":"requestUserRole","inputs":[{"name":"role","type":"string","internalType":"string"}],"outputs":[],"stateMutability":"nonpayable"},{"type":"function","name":"tokens","inputs":[{"name":"","type":"uint256","internalType":"uint256"}],"outputs":[{"name":"id","type":"uint256","internalType":"uint256"},{"name":"creator","type":"address","internalType":"address"},{"name":"name","type":"string","internalType":"string"},{"name":"totalSupply","type":"uint256","internalType":"uint256"},{"name":"features","type":"string","internalType":"string"},{"name":"parentId","type":"uint256","internalType":"uint256"},{"name":"dateCreated","type":"uint256","internalType":"uint256"},{"name":"burned","type":"bool","internalType":"bool"}],"stateMutability":"view"},{"type":"function","name":"transfer","inputs":[{"name":"to","type":"address","internalType":"address"},{"name":"tokenId","type":"uint256","internalType":"uint256"},{"name":"amount","type":"uint256","internalType":"uint256"}],"outputs":[],"stateMutability":"nonpayable"},{"type":"function","name":"transfers","inputs":[{"name":"","type":"uint256","internalType":"uint256"}],"outputs":[{"name":"id","type":"uint256","internalType":"uint256"},{"name":"from","type":"address","internalType":"address"},{"name":"to","type":"address","internalType":"address"},{"name":"tokenId","type":"uint256","internalType":"uint256"},{"name":"dateCreated","type":"uint256","internalType":"uint256"},{"name":"amount","type":"uint256","internalType":"uint256"},{"name":"status","type":"uint8","internalType":"enum SupplyChain.TransferStatus"}],"stateMutability":"view"},{"type":"function","name":"users","inputs":[{"name":"","type":"uint256","internalType":"uint256"}],"outputs":[{"name":"id","type":"uint256","internalType":"uint256"},{"name":"userAddress","type":"address","internalType":"address"},{"name":"role","type":"string","internalType":"string"},{"name":"status","type":"uint8","internalType":"enum SupplyChain.UserStatus"}],"stateMutability":"view"},{"type":"event","name":"MaterialConsumed","inputs":[{"name":"factory","type":"address","indexed":true,"internalType":"address"},{"name":"tokenId","type":"uint256","indexed":true,"internalType":"uint256"},{"name":"amount","type":"uint256","indexed":false,"internalType":"uint256"}],"anonymous":false},{"type":"event","name":"TokenBurned","inputs":[{"name":"tokenId","type":"uint256","indexed":true,"internalType":"uint256"},{"name":"burner","type":"address","indexed":true,"internalType":"address"}],"anonymous":false},{"type":"event","name":"TokenCreated","inputs":[{"name":"tokenId","type":"uint256","indexed":true,"internalType":"uint256"},{"name":"creator","type":"address","indexed":true,"internalType":"address"},{"name":"name","type":"string","indexed":false,"internalType":"string"},{"name":"totalSupply","type":"uint256","indexed":false,"internalType":"uint256"},{"name":"parentId","type":"uint256","indexed":false,"internalType":"uint256"}],"anonymous":false},{"type":"event","name":"TransferAccepted","inputs":[{"name":"transferId","type":"uint256","indexed":true,"internalType":"uint256"}],"anonymous":false},{"type":"event","name":"TransferRejected","inputs":[{"name":"transferId","type":"uint256","indexed":true,"internalType":"uint256"}],"anonymous":false},{"type":"event","name":"TransferRequested","inputs":[{"name":"transferId","type":"uint256","indexed":true,"internalType":"uint256"},{"name":"from","type":"address","indexed":true,"internalType":"address"},{"name":"to","type":"address","indexed":true,"internalType":"address"},{"name":"tokenId","type":"uint256","indexed":false,"internalType":"uint256"},{"name":"amount","type":"uint256","indexed":false,"internalType":"uint256"}],"anonymous":false},{"type":"event","name":"UserRoleRequested","inputs":[{"name":"user","type":"address","indexed":true,"internalType":"address"},{"name":"role","type":"string","indexed":false,"internalType":"string"}],"anonymous":false},{"type":"event","name":"UserStatusChanged","inputs":[{"name":"user","type":"address","indexed":true,"internalType":"address"},{"name":"status","type":"uint8","indexed":false,"internalType":"enum SupplyChain.UserStatus"}],"anonymous":false},{"type":"error","name":"AlreadyRegistered","inputs":[]},{"type":"error","name":"CannotTransferToSelf","inputs":[]},{"type":"error","name":"InsufficientBalance","inputs":[]},{"type":"error","name":"InvalidRole","inputs":[]},{"type":"error","name":"InvalidTransferDirection","inputs":[]},{"type":"error","name":"NotAdmin","inputs":[]},{"type":"error","name":"NotApproved","inputs":[]},{"type":"error","name":"NotFactory","inputs":[]},{"type":"error","name":"NotRawMaterial","inputs":[]},{"type":"error","name":"NotTransferRecipient","inputs":[]},{"type":"error","name":"OnlyConsumerCanBurn","inputs":[]},{"type":"error","name":"ParentTokenBurned","inputs":[]},{"type":"error","name":"ParentTokenNotFound","inputs":[]},{"type":"error","name":"TokenAlreadyBurned","inputs":[]},{"type":"error","name":"TokenNotFound","inputs":[]},{"type":"error","name":"TransferNotFound","inputs":[]},{"type":"error","name":"TransferNotPending","inputs":[]},{"type":"error","name":"UserNotFound","inputs":[]},{"type":"error","name":"ZeroAmount","inputs":[]}],"bytecode":{"object":"0x6080604052600180556001600255600160035534801561001e57600080fd5b50600080546001600160a01b03191633179055612749806100406000396000f3fe608060405234801561001057600080fd5b506004361061014d5760003560e01c80637b47ec1a116100c3578063b85b381b1161007c578063b85b381b1461034e578063c16fe90714610357578063d67b2d081461036a578063e4b50cb81461037d578063ef57e2d214610390578063f851a440146103a357600080fd5b80637b47ec1a1461027e5780638782dc00146102915780638b2d19c0146102a45780639377d711146102b7578063a1e6a25514610325578063b5ffbbcc1461032e57600080fd5b8063335d341011610115578063335d3410146101d7578063365b98b2146101f75780634f64b2be1461021a578063519dc8d2146102415780636386c1c71461025457806375794a3c1461026757600080fd5b8063060965bb14610152578063095bcdb61461016757806312effc321461017a57806324d7806c1461018d578063274fae7c146101c4575b600080fd5b6101656101603660046120df565b6103ce565b005b61016561017536600461211d565b610677565b610165610188366004612150565b610b69565b6101af61019b366004612169565b6000546001600160a01b0391821691161490565b60405190151581526020015b60405180910390f35b6101656101d2366004612150565b610cfe565b6101ea6101e5366004612169565b610e96565b6040516101bb919061218b565b61020a610205366004612150565b610f02565b6040516101bb949392919061223f565b61022d610228366004612150565b610fc0565b6040516101bb989796959493929190612281565b6101ea61024f366004612169565b611120565b61020a610262366004612169565b61118a565b61027060015481565b6040519081526020016101bb565b61016561028c366004612150565b611298565b61016561029f3660046122e9565b61154c565b6101656102b23660046123c7565b61162e565b6103126102c5366004612150565b6005602081905260009182526040909120805460018201546002830154600384015460048501549585015460069095015493956001600160a01b0393841695939092169390929060ff1687565b6040516101bb9796959493929190612404565b61027060035481565b61027061033c366004612169565b60076020526000908152604090205481565b61027060025481565b610312610365366004612150565b611768565b610165610378366004612459565b6117f7565b61022d61038b366004612150565b611b56565b61027061039e3660046124ce565b611d1c565b6000546103b6906001600160a01b031681565b6040516001600160a01b0390911681526020016101bb565b33600090815260076020526040812054908190036103ff5760405163c19f17a960e01b815260040160405180910390fd5b6001600082815260066020526040902060039081015460ff169081111561042857610428612215565b146104465760405163c19f17a960e01b815260040160405180910390fd5b8160000361046757604051631f2a200560e01b815260040160405180910390fd5b33600090815260076020908152604080832054808452600690925290912060020180546105519190610498906124fa565b80601f01602080910402602001604051908101604052809291908181526020018280546104c4906124fa565b80156105115780601f106104e657610100808354040283529160200191610511565b820191906000526020600020905b8154815290600101906020018083116104f457829003601f168201915b5050604080518082019091526007815266666163746f727960c81b60209182015284519401939093206000805160206126f4833981519152149392505050565b61056e57604051631966391b60e11b815260040160405180910390fd5b600084815260046020526040812054900361059c57604051630cbdb7b360e41b815260040160405180910390fd5b600084815260046020526040902060050154156105cc57604051639f7b298960e01b815260040160405180910390fd5b600084815260046020908152604080832033845260080190915290205483111561060957604051631e9acf1760e31b815260040160405180910390fd5b60008481526004602090815260408083203384526008019091528120805485929061063590849061254a565b9091555050604051838152849033907f94851888c9a382ba62b865bfd6b2931c1dab935d4fa3318ed4ab1e8019fa37149060200160405180910390a350505050565b33600090815260076020526040812054908190036106a85760405163c19f17a960e01b815260040160405180910390fd5b6001600082815260066020526040902060039081015460ff16908111156106d1576106d1612215565b146106ef5760405163c19f17a960e01b815260040160405180910390fd5b8160000361071057604051631f2a200560e01b815260040160405180910390fd5b336001600160a01b0385160361073957604051636d6c4ee560e11b815260040160405180910390fd5b600083815260046020526040812054900361076757604051630cbdb7b360e41b815260040160405180910390fd5b60008381526004602052604090206007015460ff161561079a5760405163457af9cb60e11b815260040160405180910390fd5b60008381526004602090815260408083203384526008019091529020548211156107d757604051631e9acf1760e31b815260040160405180910390fd5b33600090815260076020526040808220546001600160a01b038716835290822054909181900361081a576040516319c29a3360e21b815260040160405180910390fd5b6001600082815260066020526040902060039081015460ff169081111561084357610843612215565b146108615760405163c19f17a960e01b815260040160405180910390fd5b600082815260066020526040902060020180546109a19190610882906124fa565b80601f01602080910402602001604051908101604052809291908181526020018280546108ae906124fa565b80156108fb5780601f106108d0576101008083540402835291602001916108fb565b820191906000526020600020905b8154815290600101906020018083116108de57829003601f168201915b5050506000858152600660205260409020600201805490925061091e91506124fa565b80601f016020809104026020016040519081016040528092919081815260200182805461094a906124fa565b80156109975780601f1061096c57610100808354040283529160200191610997565b820191906000526020600020905b81548152906001019060200180831161097a57829003601f168201915b5050505050611d49565b6000858152600460209081526040808320338452600801909152812080548692906109cd90849061254a565b909155505060028054600091826109e38361255d565b9190505590506040518060e00160405280828152602001336001600160a01b03168152602001886001600160a01b0316815260200187815260200142815260200186815260200160006002811115610a3d57610a3d612215565b90526000828152600560208181526040928390208451815590840151600180830180546001600160a01b039384166001600160a01b0319918216179091559486015160028085018054929094169190961617909155606085015160038301556080850151600483015560a08501519282019290925560c084015160068201805492949193909260ff1916918490811115610ad957610ad9612215565b021790555050336000818152600960209081526040808320805460018082018355918552838520018790556001600160a01b038d16808552828520805492830181558552938390200186905580518b81529182018a905291935084917fc8262dc04f8f56abc884e1f58ca17a373610558a6cebc5e927b9e1c4668e5fdf910160405180910390a450505050505050565b3360009081526007602052604081205490819003610b9a5760405163c19f17a960e01b815260040160405180910390fd5b6001600082815260066020526040902060039081015460ff1690811115610bc357610bc3612215565b14610be15760405163c19f17a960e01b815260040160405180910390fd5b60008281526005602052604081208054909103610c1157604051632b44303360e11b815260040160405180910390fd5b6000600682015460ff166002811115610c2c57610c2c612215565b14610c4a576040516308cd5ef960e31b815260040160405180910390fd5b60028101546001600160a01b03163314610c7757604051632fe6cf8360e21b815260040160405180910390fd5b60068101805460ff1916600217905560058101546003820154600090815260046020908152604080832060018601546001600160a01b0316845260080190915281208054909190610cc9908490612576565b909155505060405183907f1f4f8a94e17d25044030f376d297769c8f9a1a2a0616e36b498a1e7370b5863f90600090a2505050565b3360009081526007602052604081205490819003610d2f5760405163c19f17a960e01b815260040160405180910390fd5b6001600082815260066020526040902060039081015460ff1690811115610d5857610d58612215565b14610d765760405163c19f17a960e01b815260040160405180910390fd5b60008281526005602052604081208054909103610da657604051632b44303360e11b815260040160405180910390fd5b6000600682015460ff166002811115610dc157610dc1612215565b14610ddf576040516308cd5ef960e31b815260040160405180910390fd5b60028101546001600160a01b03163314610e0c57604051632fe6cf8360e21b815260040160405180910390fd5b60068101805460ff1916600117905560058101546003820154600090815260046020908152604080832033845260080190915281208054909190610e51908490612576565b92505081905550610e66338260030154611f1f565b60405183907f91dd4234b45d77221e6eca52c141569a6d0f3b3ffe9b8a18fe8b9aafbc64b44b90600090a2505050565b6001600160a01b038116600090815260096020908152604091829020805483518184028101840190945280845260609392830182828015610ef657602002820191906000526020600020905b815481526020019060010190808311610ee2575b50505050509050919050565b60066020526000908152604090208054600182015460028301805492936001600160a01b0390921692610f34906124fa565b80601f0160208091040260200160405190810160405280929190818152602001828054610f60906124fa565b8015610fad5780601f10610f8257610100808354040283529160200191610fad565b820191906000526020600020905b815481529060010190602001808311610f9057829003601f168201915b5050506003909301549192505060ff1684565b60046020526000908152604090208054600182015460028301805492936001600160a01b0390921692610ff2906124fa565b80601f016020809104026020016040519081016040528092919081815260200182805461101e906124fa565b801561106b5780601f106110405761010080835404028352916020019161106b565b820191906000526020600020905b81548152906001019060200180831161104e57829003601f168201915b505050505090806003015490806004018054611086906124fa565b80601f01602080910402602001604051908101604052809291908181526020018280546110b2906124fa565b80156110ff5780601f106110d4576101008083540402835291602001916110ff565b820191906000526020600020905b8154815290600101906020018083116110e257829003601f168201915b50505050600583015460068401546007909401549293909290915060ff1688565b6001600160a01b038116600090815260086020908152604091829020805483518184028101840190945280845260609392830182828015610ef65760200282019190600052602060002090815481526020019060010190808311610ee25750505050509050919050565b6001600160a01b038116600090815260076020526040812054819060609082908082036111ca576040516319c29a3360e21b815260040160405180910390fd5b60008181526006602052604090208054600182015460038301546002840180546001600160a01b0390931692909160ff16908290611207906124fa565b80601f0160208091040260200160405190810160405280929190818152602001828054611233906124fa565b80156112805780601f1061125557610100808354040283529160200191611280565b820191906000526020600020905b81548152906001019060200180831161126357829003601f168201915b50505050509150955095509550955050509193509193565b33600090815260076020526040812054908190036112c95760405163c19f17a960e01b815260040160405180910390fd5b6001600082815260066020526040902060039081015460ff16908111156112f2576112f2612215565b146113105760405163c19f17a960e01b815260040160405180910390fd5b600082815260046020526040812054900361133e57604051630cbdb7b360e41b815260040160405180910390fd5b60008281526004602052604090206007015460ff16156113715760405163457af9cb60e11b815260040160405180910390fd5b336000908152600760209081526040808320548084526006909252909120600201805461146e91906113a2906124fa565b80601f01602080910402602001604051908101604052809291908181526020018280546113ce906124fa565b801561141b5780601f106113f05761010080835404028352916020019161141b565b820191906000526020600020905b8154815290600101906020018083116113fe57829003601f168201915b505060408051808201909152600881526731b7b739bab6b2b960c11b60209182015284519401939093207fd4af56a6cb216435050293f7c860ecd82c7b78b5ce1cf71dcb725bc26a5c8cab149392505050565b61148b57604051639e7cf39760e01b815260040160405180910390fd5b600083815260046020908152604080832033845260080190915281205490036114c757604051631e9acf1760e31b815260040160405180910390fd5b60008381526004602081815260408084203385526008810183529084208054908590558785529290915260078101805460ff1916600117905560030180549192839261151490849061254a565b9091555050604051339085907f33631bcd0a4d34a7e2c240ab0753d5adfb7284d8ac89dab6876ec785c0cfa0e690600090a350505050565b6000546001600160a01b0316331461157757604051637bfa4b9f60e01b815260040160405180910390fd5b6001600160a01b038216600090815260076020526040812054908190036115b1576040516319c29a3360e21b815260040160405180910390fd5b600081815260066020526040902060039081018054849260ff199091169060019084908111156115e3576115e3612215565b0217905550826001600160a01b03167fb3b609c7a5e504a312603e90d906d1667fd5caff0a840ad07bf5709a3ca1a045836040516116219190612589565b60405180910390a2505050565b336000908152600760205260409020541561165c57604051630ea075bf60e21b815260040160405180910390fd5b61166581611f95565b60038054600091826116768361255d565b909155506040805160808101825282815233602080830191825282840187815260006060850181905286815260069092529390208251815590516001820180546001600160a01b0319166001600160a01b0390921691909117905591519293509160028201906116e690826125e5565b5060608201518160030160006101000a81548160ff0219169083600381111561171157611711612215565b0217905550503360008181526007602052604090819020849055519091507f713064be2b63db5e6f672d3804bef390205dcf7b58bf7a978b9c31a4d05f39f09061175c9085906126a5565b60405180910390a25050565b60008181526005602052604081205481908190819081908190819081036117a257604051632b44303360e11b815260040160405180910390fd5b50505060009485525050600560208190526040909320805460018201546002830154600384015460048501549785015460069095015493986001600160a01b0393841698939092169650945090929160ff1690565b33600090815260076020526040812054908190036118285760405163c19f17a960e01b815260040160405180910390fd5b6001600082815260066020526040902060039081015460ff169081111561185157611851612215565b1461186f5760405163c19f17a960e01b815260040160405180910390fd5b8360000361189057604051631f2a200560e01b815260040160405180910390fd5b336000908152600760209081526040808320548084526006909252822060020180549192916118be906124fa565b80601f01602080910402602001604051908101604052809291908181526020018280546118ea906124fa565b80156119375780601f1061190c57610100808354040283529160200191611937565b820191906000526020600020905b81548152906001019060200180831161191a57829003601f168201915b50505050509050836000036119b057604080518082019091526008815267383937b23ab1b2b960c11b6020918201528151908201207fe8a771116431fd497933c982e9f1e2baea13d28ed5c5faf7e60dd163b2619256146119ab57604051636caa20b560e11b815260040160405180910390fd5b611a63565b604080518082019091526007815266666163746f727960c81b6020918201528151908201206000805160206126f483398151915214611a0257604051636caa20b560e11b815260040160405180910390fd5b6000848152600460205260408120549003611a305760405163e989fd4560e01b815260040160405180910390fd5b60008481526004602052604090206007015460ff1615611a635760405163a84e6b9360e01b815260040160405180910390fd5b6001805460009182611a748361255d565b9091555060008181526004602052604090208181556001810180546001600160a01b0319163317905590915060028101611aae8a826125e5565b506003810188905560048101611ac488826125e5565b506005810186905542600682015560078101805460ff191690553360008181526008808401602090815260408084208d9055918152818320805460018101825590845292209091018490555183907fe313f3cd9ae486881b5fc4f296f8639c18f70f45e34009de3ad8c25816a095f490611b43908d908d908c906126b8565b60405180910390a3505050505050505050565b6000806060600060606000806000600460008a815260200190815260200160002060000154600003611b9b57604051630cbdb7b360e41b815260040160405180910390fd5b6000898152600460208190526040909120805460018201546003830154600584015460068501546007860154600287018054979896976001600160a01b0390961696909590890193929160ff16908690611bf4906124fa565b80601f0160208091040260200160405190810160405280929190818152602001828054611c20906124fa565b8015611c6d5780601f10611c4257610100808354040283529160200191611c6d565b820191906000526020600020905b815481529060010190602001808311611c5057829003601f168201915b50505050509550838054611c80906124fa565b80601f0160208091040260200160405190810160405280929190818152602001828054611cac906124fa565b8015611cf95780601f10611cce57610100808354040283529160200191611cf9565b820191906000526020600020905b815481529060010190602001808311611cdc57829003601f168201915b505050505093509850985098509850985098509850985050919395975091939597565b60008281526004602090815260408083206001600160a01b03851684526008019091529020545b92915050565b604080518082019091526008815267383937b23ab1b2b960c11b6020918201528251908301206000907fe8a771116431fd497933c982e9f1e2baea13d28ed5c5faf7e60dd163b2619256148015611dd15750604080518082019091526007815266666163746f727960c81b6020918201528251908301206000805160206126f4833981519152145b80611e5c5750604080518082019091526007815266666163746f727960c81b6020918201528351908401206000805160206126f4833981519152148015611e5c57506040805180820190915260088152673932ba30b4b632b960c11b6020918201528251908301207f35720142b9ab11c25c53ca13befe9fb19c96957cb76a5f2f70547e5eb0c912d7145b80611efa57506040805180820190915260088152673932ba30b4b632b960c11b6020918201528351908401207f35720142b9ab11c25c53ca13befe9fb19c96957cb76a5f2f70547e5eb0c912d7148015611efa575060408051808201909152600881526731b7b739bab6b2b960c11b6020918201528251908301207fd4af56a6cb216435050293f7c860ecd82c7b78b5ce1cf71dcb725bc26a5c8cab145b905080611f1a57604051630ea3ffc960e41b815260040160405180910390fd5b505050565b6001600160a01b0382166000908152600860205260408120905b8154811015611f7d5782828281548110611f5557611f556126dd565b906000526020600020015403611f6b5750505050565b80611f758161255d565b915050611f39565b50805460018101825560009182526020909120015550565b604080518082019091526008815267383937b23ab1b2b960c11b6020918201528151908201207fe8a771116431fd497933c982e9f1e2baea13d28ed5c5faf7e60dd163b26192561415801561201c5750604080518082019091526007815266666163746f727960c81b6020918201528151908201206000805160206126f483398151915214155b801561206d57506040805180820190915260088152673932ba30b4b632b960c11b6020918201528151908201207f35720142b9ab11c25c53ca13befe9fb19c96957cb76a5f2f70547e5eb0c912d714155b80156120be575060408051808201909152600881526731b7b739bab6b2b960c11b6020918201528151908201207fd4af56a6cb216435050293f7c860ecd82c7b78b5ce1cf71dcb725bc26a5c8cab14155b156120dc57604051636caa20b560e11b815260040160405180910390fd5b50565b600080604083850312156120f257600080fd5b50508035926020909101359150565b80356001600160a01b038116811461211857600080fd5b919050565b60008060006060848603121561213257600080fd5b61213b84612101565b95602085013595506040909401359392505050565b60006020828403121561216257600080fd5b5035919050565b60006020828403121561217b57600080fd5b61218482612101565b9392505050565b6020808252825182820181905260009190848201906040850190845b818110156121c3578351835292840192918401916001016121a7565b50909695505050505050565b6000815180845260005b818110156121f5576020818501810151868301820152016121d9565b506000602082860101526020601f19601f83011685010191505092915050565b634e487b7160e01b600052602160045260246000fd5b6004811061223b5761223b612215565b9052565b8481526001600160a01b0384166020820152608060408201819052600090612269908301856121cf565b9050612278606083018461222b565b95945050505050565b8881526001600160a01b0388166020820152610100604082018190526000906122ac8382018a6121cf565b905087606084015282810360808401526122c681886121cf565b60a0840196909652505060c0810192909252151560e09091015295945050505050565b600080604083850312156122fc57600080fd5b61230583612101565b915060208301356004811061231957600080fd5b809150509250929050565b634e487b7160e01b600052604160045260246000fd5b600082601f83011261234b57600080fd5b813567ffffffffffffffff8082111561236657612366612324565b604051601f8301601f19908116603f0116810190828211818310171561238e5761238e612324565b816040528381528660208588010111156123a757600080fd5b836020870160208301376000602085830101528094505050505092915050565b6000602082840312156123d957600080fd5b813567ffffffffffffffff8111156123f057600080fd5b6123fc8482850161233a565b949350505050565b8781526001600160a01b03878116602083015286166040820152606081018590526080810184905260a0810183905260e081016003831061244757612447612215565b8260c083015298975050505050505050565b6000806000806080858703121561246f57600080fd5b843567ffffffffffffffff8082111561248757600080fd5b6124938883890161233a565b95506020870135945060408701359150808211156124b057600080fd5b506124bd8782880161233a565b949793965093946060013593505050565b600080604083850312156124e157600080fd5b823591506124f160208401612101565b90509250929050565b600181811c9082168061250e57607f821691505b60208210810361252e57634e487b7160e01b600052602260045260246000fd5b50919050565b634e487b7160e01b600052601160045260246000fd5b81810381811115611d4357611d43612534565b60006001820161256f5761256f612534565b5060010190565b80820180821115611d4357611d43612534565b60208101611d43828461222b565b601f821115611f1a57600081815260208120601f850160051c810160208610156125be5750805b601f850160051c820191505b818110156125dd578281556001016125ca565b505050505050565b815167ffffffffffffffff8111156125ff576125ff612324565b6126138161260d84546124fa565b84612597565b602080601f83116001811461264857600084156126305750858301515b600019600386901b1c1916600185901b1785556125dd565b600085815260208120601f198616915b8281101561267757888601518255948401946001909101908401612658565b50858210156126955787850151600019600388901b60f8161c191681555b5050505050600190811b01905550565b60208152600061218460208301846121cf565b6060815260006126cb60608301866121cf565b60208301949094525060400152919050565b634e487b7160e01b600052603260045260246000fdfee366a98476020cb9ff8cc566d0cdeac414e546d2e7ede445f4e7032a4272c771a264697066735822122099b9960eb42d7acb6c6d7b83c8ab79bf39851b2c2780114ccf2542a55546663e64736f6c63430008130033","linkReferences":{}},"methodIdentifiers":{"acceptTransfer(uint256)":"274fae7c","addressToUserId(address)":"b5ffbbcc","admin()":"f851a440","burnToken(uint256)":"7b47ec1a","changeStatusUser(address,uint8)":"8782dc00","consumeRawMaterial(uint256,uint256)":"060965bb","createToken(string,uint256,string,uint256)":"d67b2d08","getToken(uint256)":"e4b50cb8","getTokenBalance(uint256,address)":"ef57e2d2","getTransfer(uint256)":"c16fe907","getUserInfo(address)":"6386c1c7","getUserTokens(address)":"519dc8d2","getUserTransfers(address)":"335d3410","isAdmin(address)":"24d7806c","nextTokenId()":"75794a3c","nextTransferId()":"b85b381b","nextUserId()":"a1e6a255","rejectTransfer(uint256)":"12effc32","requestUserRole(string)":"8b2d19c0","tokens(uint256)":"4f64b2be","transfer(address,uint256,uint256)":"095bcdb6","transfers(uint256)":"9377d711","users(uint256)":"365b98b2"},"id":21}