{"abi":[{"type":"constructor","inputs":[],"stateMutability":"nonpayable"},{"type":"function","name":"acceptTransfer","inputs":[{"name":"transferId","type":"uint256","internalType":"uint256"}],"outputs":[],"stateMutability":"nonpayable"},{"type":"function","name":"addressToUserId","inputs":[{"name":"","type":"address","internalType":"address"}],"outputs":[{"name":"","type":"uint256","internalType":"uint256"}],"stateMutability":"view"},{"type":"function","name":"admin","inputs":[],"outputs":[{"name":"","type":"address","internalType":"address"}],"stateMutability":"view"},{"type":"function","name":"burnToken","inputs":[{"name":"tokenId","type":"uint256","internalType":"uint256"}],"outputs":[],"stateMutability":"nonpayable"},{"type":"function","name":"certifyToken","inputs":[{"name":"tokenId","type":"uint256","internalType":"uint256"},{"name":"certHash","type":"string","internalType":"string"}],"outputs":[],"stateMutability":"nonpayable"},{"type":"function","name":"changeStatusUser","inputs":[{"name":"userAddress","type":"address","internalType":"address"},{"name":"newStatus","type":"uint8","internalType":"enum SupplyChain.UserStatus"}],"outputs":[],"stateMutability":"nonpayable"},{"type":"function","name":"consumeRawMaterial","inputs":[{"name":"tokenId","type":"uint256","internalType":"uint256"},{"name":"amount","type":"uint256","internalType":"uint256"}],"outputs":[],"stateMutability":"nonpayable"},{"type":"function","name":"createToken","inputs":[{"name":"name","type":"string","internalType":"string"},{"name":"totalSupply","type":"uint256","internalType":"uint256"},{"name":"features","type":"string","internalType":"string"},{"name":"parentId","type":"uint256","internalType":"uint256"}],"outputs":[],"stateMutability":"nonpayable"},{"type":"function","name":"getAllTokenIds","inputs":[],"outputs":[{"name":"","type":"uint256[]","internalType":"uint256[]"}],"stateMutability":"view"},{"type":"function","name":"getAllUserIds","inputs":[],"outputs":[{"name":"","type":"uint256[]","internalType":"uint256[]"}],"stateMutability":"view"},{"type":"function","name":"getToken","inputs":[{"name":"tokenId","type":"uint256","internalType":"uint256"}],"outputs":[{"name":"id","type":"uint256","internalType":"uint256"},{"name":"creator","type":"address","internalType":"address"},{"name":"name","type":"string","internalType":"string"},{"name":"totalSupply","type":"uint256","internalType":"uint256"},{"name":"features","type":"string","internalType":"string"},{"name":"parentId","type":"uint256","internalType":"uint256"},{"name":"dateCreated","type":"uint256","internalType":"uint256"},{"name":"burned","type":"bool","internalType":"bool"},{"name":"certified","type":"bool","internalType":"bool"}],"stateMutability":"view"},{"type":"function","name":"getTokenBalance","inputs":[{"name":"tokenId","type":"uint256","internalType":"uint256"},{"name":"userAddress","type":"address","internalType":"address"}],"outputs":[{"name":"","type":"uint256","internalType":"uint256"}],"stateMutability":"view"},{"type":"function","name":"getTransfer","inputs":[{"name":"transferId","type":"uint256","internalType":"uint256"}],"outputs":[{"name":"id","type":"uint256","internalType":"uint256"},{"name":"from","type":"address","internalType":"address"},{"name":"to","type":"address","internalType":"address"},{"name":"tokenId","type":"uint256","internalType":"uint256"},{"name":"dateCreated","type":"uint256","internalType":"uint256"},{"name":"amount","type":"uint256","internalType":"uint256"},{"name":"status","type":"uint8","internalType":"enum SupplyChain.TransferStatus"}],"stateMutability":"view"},{"type":"function","name":"getUserAddressesByRole","inputs":[{"name":"role","type":"string","internalType":"string"}],"outputs":[{"name":"","type":"address[]","internalType":"address[]"}],"stateMutability":"view"},{"type":"function","name":"getUserInfo","inputs":[{"name":"userAddress","type":"address","internalType":"address"}],"outputs":[{"name":"id","type":"uint256","internalType":"uint256"},{"name":"userAddr","type":"address","internalType":"address"},{"name":"name","type":"string","internalType":"string"},{"name":"role","type":"string","internalType":"string"},{"name":"status","type":"uint8","internalType":"enum SupplyChain.UserStatus"}],"stateMutability":"view"},{"type":"function","name":"getUserTokenIds","inputs":[{"name":"userAddress","type":"address","internalType":"address"}],"outputs":[{"name":"","type":"uint256[]","internalType":"uint256[]"}],"stateMutability":"view"},{"type":"function","name":"getUserTransfers","inputs":[{"name":"userAddress","type":"address","internalType":"address"}],"outputs":[{"name":"","type":"uint256[]","internalType":"uint256[]"}],"stateMutability":"view"},{"type":"function","name":"isAdmin","inputs":[{"name":"userAddress","type":"address","internalType":"address"}],"outputs":[{"name":"","type":"bool","internalType":"bool"}],"stateMutability":"view"},{"type":"function","name":"nextTokenId","inputs":[],"outputs":[{"name":"","type":"uint256","internalType":"uint256"}],"stateMutability":"view"},{"type":"function","name":"nextTransferId","inputs":[],"outputs":[{"name":"","type":"uint256","internalType":"uint256"}],"stateMutability":"view"},{"type":"function","name":"nextUserId","inputs":[],"outputs":[{"name":"","type":"uint256","internalType":"uint256"}],"stateMutability":"view"},{"type":"function","name":"redeemProduct","inputs":[{"name":"tokenId","type":"uint256","internalType":"uint256"},{"name":"amount","type":"uint256","internalType":"uint256"}],"outputs":[],"stateMutability":"nonpayable"},{"type":"function","name":"rejectTransfer","inputs":[{"name":"transferId","type":"uint256","internalType":"uint256"}],"outputs":[],"stateMutability":"nonpayable"},{"type":"function","name":"requestUserRole","inputs":[{"name":"name","type":"string","internalType":"string"},{"name":"role","type":"string","internalType":"string"}],"outputs":[],"stateMutability":"nonpayable"},{"type":"function","name":"tokens","inputs":[{"name":"","type":"uint256","internalType":"uint256"}],"outputs":[{"name":"id","type":"uint256","internalType":"uint256"},{"name":"creator","type":"address","internalType":"address"},{"name":"name","type":"string","internalType":"string"},{"name":"totalSupply","type":"uint256","internalType":"uint256"},{"name":"features","type":"string","internalType":"string"},{"name":"parentId","type":"uint256","internalType":"uint256"},{"name":"dateCreated","type":"uint256","internalType":"uint256"},{"name":"burned","type":"bool","internalType":"bool"},{"name":"certified","type":"bool","internalType":"bool"}],"stateMutability":"view"},{"type":"function","name":"transfer","inputs":[{"name":"to","type":"address","internalType":"address"},{"name":"tokenId","type":"uint256","internalType":"uint256"},{"name":"amount","type":"uint256","internalType":"uint256"}],"outputs":[],"stateMutability":"nonpayable"},{"type":"function","name":"transfers","inputs":[{"name":"","type":"uint256","internalType":"uint256"}],"outputs":[{"name":"id","type":"uint256","internalType":"uint256"},{"name":"from","type":"address","internalType":"address"},{"name":"to","type":"address","internalType":"address"},{"name":"tokenId","type":"uint256","internalType":"uint256"},{"name":"dateCreated","type":"uint256","internalType":"uint256"},{"name":"amount","type":"uint256","internalType":"uint256"},{"name":"status","type":"uint8","internalType":"enum SupplyChain.TransferStatus"}],"stateMutability":"view"},{"type":"function","name":"updateToken","inputs":[{"name":"tokenId","type":"uint256","internalType":"uint256"},{"name":"name","type":"string","internalType":"string"},{"name":"features","type":"string","internalType":"string"}],"outputs":[],"stateMutability":"nonpayable"},{"type":"function","name":"users","inputs":[{"name":"","type":"uint256","internalType":"uint256"}],"outputs":[{"name":"id","type":"uint256","internalType":"uint256"},{"name":"userAddress","type":"address","internalType":"address"},{"name":"name","type":"string","internalType":"string"},{"name":"role","type":"string","internalType":"string"},{"name":"status","type":"uint8","internalType":"enum SupplyChain.UserStatus"}],"stateMutability":"view"},{"type":"event","name":"MaterialConsumed","inputs":[{"name":"factory","type":"address","indexed":true,"internalType":"address"},{"name":"tokenId","type":"uint256","indexed":true,"internalType":"uint256"},{"name":"amount","type":"uint256","indexed":false,"internalType":"uint256"}],"anonymous":false},{"type":"event","name":"ProductRedeemed","inputs":[{"name":"tokenId","type":"uint256","indexed":true,"internalType":"uint256"},{"name":"consumer","type":"address","indexed":true,"internalType":"address"},{"name":"amount","type":"uint256","indexed":false,"internalType":"uint256"},{"name":"parentId","type":"uint256","indexed":true,"internalType":"uint256"}],"anonymous":false},{"type":"event","name":"TokenBurned","inputs":[{"name":"tokenId","type":"uint256","indexed":true,"internalType":"uint256"},{"name":"burner","type":"address","indexed":true,"internalType":"address"}],"anonymous":false},{"type":"event","name":"TokenCertified","inputs":[{"name":"tokenId","type":"uint256","indexed":true,"internalType":"uint256"},{"name":"certifier","type":"address","indexed":true,"internalType":"address"},{"name":"certHash","type":"string","indexed":false,"internalType":"string"},{"name":"date","type":"uint256","indexed":false,"internalType":"uint256"}],"anonymous":false},{"type":"event","name":"TokenCreated","inputs":[{"name":"tokenId","type":"uint256","indexed":true,"internalType":"uint256"},{"name":"creator","type":"address","indexed":true,"internalType":"address"},{"name":"name","type":"string","indexed":false,"internalType":"string"},{"name":"totalSupply","type":"uint256","indexed":false,"internalType":"uint256"},{"name":"parentId","type":"uint256","indexed":false,"internalType":"uint256"}],"anonymous":false},{"type":"event","name":"TokenUpdated","inputs":[{"name":"tokenId","type":"uint256","indexed":true,"internalType":"uint256"},{"name":"name","type":"string","indexed":false,"internalType":"string"},{"name":"features","type":"string","indexed":false,"internalType":"string"}],"anonymous":false},{"type":"event","name":"TransferAccepted","inputs":[{"name":"transferId","type":"uint256","indexed":true,"internalType":"uint256"}],"anonymous":false},{"type":"event","name":"TransferRejected","inputs":[{"name":"transferId","type":"uint256","indexed":true,"internalType":"uint256"}],"anonymous":false},{"type":"event","name":"TransferRequested","inputs":[{"name":"transferId","type":"uint256","indexed":true,"internalType":"uint256"},{"name":"from","type":"address","indexed":true,"internalType":"address"},{"name":"to","type":"address","indexed":true,"internalType":"address"},{"name":"tokenId","type":"uint256","indexed":false,"internalType":"uint256"},{"name":"amount","type":"uint256","indexed":false,"internalType":"uint256"}],"anonymous":false},{"type":"event","name":"UserRoleRequested","inputs":[{"name":"user","type":"address","indexed":true,"internalType":"address"},{"name":"name","type":"string","indexed":false,"internalType":"string"},{"name":"role","type":"string","indexed":false,"internalType":"string"}],"anonymous":false},{"type":"event","name":"UserStatusChanged","inputs":[{"name":"user","type":"address","indexed":true,"internalType":"address"},{"name":"status","type":"uint8","indexed":false,"internalType":"enum SupplyChain.UserStatus"}],"anonymous":false},{"type":"error","name":"AlreadyRegistered","inputs":[]},{"type":"error","name":"CannotTransferToSelf","inputs":[]},{"type":"error","name":"InsufficientBalance","inputs":[]},{"type":"error","name":"InvalidRole","inputs":[]},{"type":"error","name":"InvalidTransferDirection","inputs":[]},{"type":"error","name":"NotAdmin","inputs":[]},{"type":"error","name":"NotApproved","inputs":[]},{"type":"error","name":"NotCertifier","inputs":[]},{"type":"error","name":"NotFactory","inputs":[]},{"type":"error","name":"NotProduct","inputs":[]},{"type":"error","name":"NotRawMaterial","inputs":[]},{"type":"error","name":"NotTokenCreator","inputs":[]},{"type":"error","name":"NotTransferRecipient","inputs":[]},{"type":"error","name":"OnlyConsumerCanBurn","inputs":[]},{"type":"error","name":"ParentTokenBurned","inputs":[]},{"type":"error","name":"ParentTokenNotFound","inputs":[]},{"type":"error","name":"TokenAlreadyBurned","inputs":[]},{"type":"error","name":"TokenNotCertifiable","inputs":[]},{"type":"error","name":"TokenNotCertified","inputs":[]},{"type":"error","name":"TokenNotFound","inputs":[]},{"type":"error","name":"TransferNotFound","inputs":[]},{"type":"error","name":"TransferNotPending","inputs":[]},{"type":"error","name":"UserNotFound","inputs":[]},{"type":"error","name":"ZeroAmount","inputs":[]}],"bytecode":{"object":"0x6080604052600180556001600255600160035534801561001e57600080fd5b50600080546001600160a01b0319163317905561349b806100406000396000f3fe608060405234801561001057600080fd5b50600436106101cf5760003560e01c806392ddf23c11610104578063b85b381b116100a2578063d67b2d0811610071578063d67b2d0814610457578063e4b50cb81461046a578063ef57e2d21461047d578063f851a4401461049057600080fd5b8063b85b381b1461042b578063bdbed72214610434578063be4906c91461043c578063c16fe9071461044457600080fd5b80639d22623c116100de5780639d22623c146103dc578063a1e6a255146103ef578063ab114615146103f8578063b5ffbbcc1461040b57600080fd5b806392ddf23c146103485780639377d7111461035b57806399911420146103c957600080fd5b80633e335b7a1161017157806375794a3c1161014b57806375794a3c146102eb5780637a5f839b146103025780637b47ec1a146103225780638782dc001461033557600080fd5b80633e335b7a1461029d5780634f64b2be146102b05780636386c1c7146102d857600080fd5b806324d7806c116101ad57806324d7806c1461020f578063274fae7c14610246578063335d341014610259578063365b98b21461027957600080fd5b8063060965bb146101d4578063095bcdb6146101e957806312effc32146101fc575b600080fd5b6101e76101e2366004612c62565b6104bb565b005b6101e76101f7366004612ca0565b610764565b6101e761020a366004612cd3565b610ca8565b61023161021d366004612cec565b6000546001600160a01b0391821691161490565b60405190151581526020015b60405180910390f35b6101e7610254366004612cd3565b610e3c565b61026c610267366004612cec565b610fd3565b60405161023d9190612d0e565b61028c610287366004612cd3565b61103f565b60405161023d959493929190612dcc565b6101e76102ab366004612c62565b61118b565b6102c36102be366004612cd3565b611538565b60405161023d99989796959493929190612e22565b61028c6102e6366004612cec565b6116a1565b6102f460015481565b60405190815260200161023d565b610315610310366004612f36565b611848565b60405161023d9190612f73565b6101e7610330366004612cd3565b6118c1565b6101e7610343366004612fb4565b611aa8565b61026c610356366004612cec565b611b86565b6103b6610369366004612cd3565b6005602081905260009182526040909120805460018201546002830154600384015460048501549585015460069095015493956001600160a01b0393841695939092169390929060ff1687565b60405161023d9796959493929190612fef565b6101e76103d7366004613044565b611bf0565b6101e76103ea3660046130b1565b611d7b565b6102f460035481565b6101e76104063660046130f8565b611ff7565b6102f4610419366004612cec565b60076020526000908152604090205481565b6102f460025481565b61026c6121b0565b61026c612208565b6103b6610452366004612cd3565b61225e565b6101e7610465366004613152565b6122ed565b6102c3610478366004612cd3565b612678565b6102f461048b3660046131c7565b61284d565b6000546104a3906001600160a01b031681565b6040516001600160a01b03909116815260200161023d565b33600090815260076020526040812054908190036104ec5760405163c19f17a960e01b815260040160405180910390fd5b600160008281526006602052604090206004015460ff16600381111561051457610514612da2565b146105325760405163c19f17a960e01b815260040160405180910390fd5b8160000361055357604051631f2a200560e01b815260040160405180910390fd5b336000908152600760209081526040808320548084526006909252909120600301805461063d9190610584906131f3565b80601f01602080910402602001604051908101604052809291908181526020018280546105b0906131f3565b80156105fd5780601f106105d2576101008083540402835291602001916105fd565b820191906000526020600020905b8154815290600101906020018083116105e057829003601f168201915b5050604080518082019091526007815266666163746f727960c81b6020918201528451940193909320600080516020613446833981519152149392505050565b61065a57604051631966391b60e11b815260040160405180910390fd5b600084815260046020526040812054900361068857604051630cbdb7b360e41b815260040160405180910390fd5b600084815260046020526040902060050154156106b857604051639f7b298960e01b815260040160405180910390fd5b60008481526004602090815260408083203384526008019091529020548311156106f557604051631e9acf1760e31b815260040160405180910390fd5b600084815260046020908152604080832033845260080190915281208054859290610721908490613243565b9091555050604051838152849033907f94851888c9a382ba62b865bfd6b2931c1dab935d4fa3318ed4ab1e8019fa3714906020015b60405180910390a350505050565b33600090815260076020526040812054908190036107955760405163c19f17a960e01b815260040160405180910390fd5b600160008281526006602052604090206004015460ff1660038111156107bd576107bd612da2565b146107db5760405163c19f17a960e01b815260040160405180910390fd5b816000036107fc57604051631f2a200560e01b815260040160405180910390fd5b336001600160a01b0385160361082557604051636d6c4ee560e11b815260040160405180910390fd5b600083815260046020526040812054900361085357604051630cbdb7b360e41b815260040160405180910390fd5b60008381526004602052604090206007015460ff16156108865760405163457af9cb60e11b815260040160405180910390fd5b33600090815260076020526040808220546001600160a01b03871683529082205490918190036108c9576040516319c29a3360e21b815260040160405180910390fd5b600160008281526006602052604090206004015460ff1660038111156108f1576108f1612da2565b1461090f5760405163c19f17a960e01b815260040160405180910390fd5b60008281526006602052604090206003018054610a4f9190610930906131f3565b80601f016020809104026020016040519081016040528092919081815260200182805461095c906131f3565b80156109a95780601f1061097e576101008083540402835291602001916109a9565b820191906000526020600020905b81548152906001019060200180831161098c57829003601f168201915b505050600085815260066020526040902060030180549092506109cc91506131f3565b80601f01602080910402602001604051908101604052809291908181526020018280546109f8906131f3565b8015610a455780601f10610a1a57610100808354040283529160200191610a45565b820191906000526020600020905b815481529060010190602001808311610a2857829003601f168201915b505050505061287a565b600085815260046020526040902060050154158015610a855750600085815260046020526040902060070154610100900460ff16155b15610aa357604051634303149760e11b815260040160405180910390fd5b6000858152600460209081526040808320338452600801909152902054841115610ae057604051631e9acf1760e31b815260040160405180910390fd5b600085815260046020908152604080832033845260080190915281208054869290610b0c908490613243565b90915550506002805460009182610b2283613256565b9190505590506040518060e00160405280828152602001336001600160a01b03168152602001886001600160a01b0316815260200187815260200142815260200186815260200160006002811115610b7c57610b7c612da2565b90526000828152600560208181526040928390208451815590840151600180830180546001600160a01b039384166001600160a01b0319918216179091559486015160028085018054929094169190961617909155606085015160038301556080850151600483015560a08501519282019290925560c084015160068201805492949193909260ff1916918490811115610c1857610c18612da2565b021790555050336000818152600c60209081526040808320805460018082018355918552838520018790556001600160a01b038d16808552828520805492830181558552938390200186905580518b81529182018a905291935084917fc8262dc04f8f56abc884e1f58ca17a373610558a6cebc5e927b9e1c4668e5fdf910160405180910390a450505050505050565b3360009081526007602052604081205490819003610cd95760405163c19f17a960e01b815260040160405180910390fd5b600160008281526006602052604090206004015460ff166003811115610d0157610d01612da2565b14610d1f5760405163c19f17a960e01b815260040160405180910390fd5b60008281526005602052604081208054909103610d4f57604051632b44303360e11b815260040160405180910390fd5b6000600682015460ff166002811115610d6a57610d6a612da2565b14610d88576040516308cd5ef960e31b815260040160405180910390fd5b60028101546001600160a01b03163314610db557604051632fe6cf8360e21b815260040160405180910390fd5b60068101805460ff1916600217905560058101546003820154600090815260046020908152604080832060018601546001600160a01b0316845260080190915281208054909190610e0790849061326f565b909155505060405183907f1f4f8a94e17d25044030f376d297769c8f9a1a2a0616e36b498a1e7370b5863f90600090a2505050565b3360009081526007602052604081205490819003610e6d5760405163c19f17a960e01b815260040160405180910390fd5b600160008281526006602052604090206004015460ff166003811115610e9557610e95612da2565b14610eb35760405163c19f17a960e01b815260040160405180910390fd5b60008281526005602052604081208054909103610ee357604051632b44303360e11b815260040160405180910390fd5b6000600682015460ff166002811115610efe57610efe612da2565b14610f1c576040516308cd5ef960e31b815260040160405180910390fd5b60028101546001600160a01b03163314610f4957604051632fe6cf8360e21b815260040160405180910390fd5b60068101805460ff1916600117905560058101546003820154600090815260046020908152604080832033845260080190915281208054909190610f8e90849061326f565b92505081905550610fa3338260030154612a50565b60405183907f91dd4234b45d77221e6eca52c141569a6d0f3b3ffe9b8a18fe8b9aafbc64b44b90600090a2505050565b6001600160a01b0381166000908152600c602090815260409182902080548351818402810184019094528084526060939283018282801561103357602002820191906000526020600020905b81548152602001906001019080831161101f575b50505050509050919050565b60066020526000908152604090208054600182015460028301805492936001600160a01b0390921692611071906131f3565b80601f016020809104026020016040519081016040528092919081815260200182805461109d906131f3565b80156110ea5780601f106110bf576101008083540402835291602001916110ea565b820191906000526020600020905b8154815290600101906020018083116110cd57829003601f168201915b5050505050908060030180546110ff906131f3565b80601f016020809104026020016040519081016040528092919081815260200182805461112b906131f3565b80156111785780601f1061114d57610100808354040283529160200191611178565b820191906000526020600020905b81548152906001019060200180831161115b57829003601f168201915b5050506004909301549192505060ff1685565b33600090815260076020526040812054908190036111bc5760405163c19f17a960e01b815260040160405180910390fd5b600160008281526006602052604090206004015460ff1660038111156111e4576111e4612da2565b146112025760405163c19f17a960e01b815260040160405180910390fd5b600083815260046020526040812054900361123057604051630cbdb7b360e41b815260040160405180910390fd5b60008381526004602052604090206007015460ff16156112635760405163457af9cb60e11b815260040160405180910390fd5b8160000361128457604051631f2a200560e01b815260040160405180910390fd5b60008381526004602052604081206005015490036112b557604051637a71998760e01b815260040160405180910390fd5b33600090815260076020908152604080832054808452600690925290912060030180546113b291906112e6906131f3565b80601f0160208091040260200160405190810160405280929190818152602001828054611312906131f3565b801561135f5780601f106113345761010080835404028352916020019161135f565b820191906000526020600020905b81548152906001019060200180831161134257829003601f168201915b505060408051808201909152600881526731b7b739bab6b2b960c11b60209182015284519401939093207fd4af56a6cb216435050293f7c860ecd82c7b78b5ce1cf71dcb725bc26a5c8cab149392505050565b6113cf57604051639e7cf39760e01b815260040160405180910390fd5b600084815260046020908152604080832033845260080190915290205483111561140c57604051631e9acf1760e31b815260040160405180910390fd5b600084815260046020908152604080832033845260080190915281208054859290611438908490613243565b90915550506000848152600460205260408120600301805485929061145e908490613243565b9091555050600084815260046020908152604080832033845260080190915281205490036114a3576000848152600460205260409020600701805460ff191660011790555b6000848152600460205260408082206005015480835291206003015484116114ec57600081815260046020526040812060030180548692906114e6908490613243565b90915550505b80336001600160a01b0316867f482fd4378e80237951404d1f740ff144aca8c3117ab3c50efe2453147ea9c12f8760405161152991815260200190565b60405180910390a45050505050565b60046020526000908152604090208054600182015460028301805492936001600160a01b039092169261156a906131f3565b80601f0160208091040260200160405190810160405280929190818152602001828054611596906131f3565b80156115e35780601f106115b8576101008083540402835291602001916115e3565b820191906000526020600020905b8154815290600101906020018083116115c657829003601f168201915b5050505050908060030154908060040180546115fe906131f3565b80601f016020809104026020016040519081016040528092919081815260200182805461162a906131f3565b80156116775780601f1061164c57610100808354040283529160200191611677565b820191906000526020600020905b81548152906001019060200180831161165a57829003601f168201915b50505050600583015460068401546007909401549293909290915060ff8082169161010090041689565b6001600160a01b0381166000908152600760205260408120548190606090819083908082036116e3576040516319c29a3360e21b815260040160405180910390fd5b60008181526006602052604090208054600182015460048301546002840180546001600160a01b03909316929091600386019160ff909116908390611727906131f3565b80601f0160208091040260200160405190810160405280929190818152602001828054611753906131f3565b80156117a05780601f10611775576101008083540402835291602001916117a0565b820191906000526020600020905b81548152906001019060200180831161178357829003601f168201915b505050505092508180546117b3906131f3565b80601f01602080910402602001604051908101604052809291908181526020018280546117df906131f3565b801561182c5780601f106118015761010080835404028352916020019161182c565b820191906000526020600020905b81548152906001019060200180831161180f57829003601f168201915b5050505050915096509650965096509650505091939590929450565b6060600b8260405161185a9190613282565b908152604080519182900360209081018320805480830285018301909352828452919083018282801561103357602002820191906000526020600020905b81546001600160a01b031681526001909101906020018083116118985750505050509050919050565b33600090815260076020526040812054908190036118f25760405163c19f17a960e01b815260040160405180910390fd5b600160008281526006602052604090206004015460ff16600381111561191a5761191a612da2565b146119385760405163c19f17a960e01b815260040160405180910390fd5b600082815260046020526040812054900361196657604051630cbdb7b360e41b815260040160405180910390fd5b60008281526004602052604090206007015460ff16156119995760405163457af9cb60e11b815260040160405180910390fd5b33600090815260076020908152604080832054808452600690925290912060030180546119ca91906112e6906131f3565b6119e757604051639e7cf39760e01b815260040160405180910390fd5b60008381526004602090815260408083203384526008019091528120549003611a2357604051631e9acf1760e31b815260040160405180910390fd5b60008381526004602081815260408084203385526008810183529084208054908590558785529290915260078101805460ff19166001179055600301805491928392611a70908490613243565b9091555050604051339085907f33631bcd0a4d34a7e2c240ab0753d5adfb7284d8ac89dab6876ec785c0cfa0e690600090a350505050565b6000546001600160a01b03163314611ad357604051637bfa4b9f60e01b815260040160405180910390fd5b6001600160a01b03821660009081526007602052604081205490819003611b0d576040516319c29a3360e21b815260040160405180910390fd5b6000818152600660205260409020600401805483919060ff19166001836003811115611b3b57611b3b612da2565b0217905550826001600160a01b03167fb3b609c7a5e504a312603e90d906d1667fd5caff0a840ad07bf5709a3ca1a04583604051611b79919061329e565b60405180910390a2505050565b6001600160a01b0381166000908152600a6020908152604091829020805483518184028101840190945280845260609392830182828015611033576020028201919060005260206000209081548152602001906001019080831161101f5750505050509050919050565b3360009081526007602052604081205490819003611c215760405163c19f17a960e01b815260040160405180910390fd5b600160008281526006602052604090206004015460ff166003811115611c4957611c49612da2565b14611c675760405163c19f17a960e01b815260040160405180910390fd5b6000848152600460205260408120549003611c9557604051630cbdb7b360e41b815260040160405180910390fd5b60008481526004602052604090206007015460ff1615611cc85760405163457af9cb60e11b815260040160405180910390fd5b6000848152600460205260409020600101546001600160a01b03163314611d0257604051632bef593560e11b815260040160405180910390fd5b6000848152600460205260409020600201611d1d84826132fa565b50600084815260046020819052604090912001611d3a83826132fa565b50837fc5e36ddfbe711be5c25758a32bea8fd9cd46f64f9a31935b2fc74f17b479e08d8484604051611d6d9291906133ba565b60405180910390a250505050565b3360009081526007602052604081205490819003611dac5760405163c19f17a960e01b815260040160405180910390fd5b600160008281526006602052604090206004015460ff166003811115611dd457611dd4612da2565b14611df25760405163c19f17a960e01b815260040160405180910390fd5b3360009081526007602090815260408083205480845260069092529091206003018054611ef09190611e23906131f3565b80601f0160208091040260200160405190810160405280929190818152602001828054611e4f906131f3565b8015611e9c5780601f10611e7157610100808354040283529160200191611e9c565b820191906000526020600020905b815481529060010190602001808311611e7f57829003601f168201915b505060408051808201909152600981526831b2b93a34b334b2b960b91b60209182015284519401939093207fffc7b8a776d34ae961f5e4f3015c40a89631193f5db617d4b7bb4cef5318c881149392505050565b611f0d5760405163a652ac3d60e01b815260040160405180910390fd5b6000848152600460205260408120549003611f3b57604051630cbdb7b360e41b815260040160405180910390fd5b60008481526004602052604090206005015415611f6b576040516343685e4b60e11b815260040160405180910390fd5b600084815260046020526040902060070154610100900460ff1615611fa3576040516343685e4b60e11b815260040160405180910390fd5b60008481526004602052604090819020600701805461ff00191661010017905551339085907feeba9d23d2e10e1f0272ffe95c6609ea36875dd7e52f99e480f4d80f9f941b139061075690879042906133e8565b336000908152600760205260409020541561202557604051630ea075bf60e21b815260040160405180910390fd5b61202e81612ac6565b600380546000918261203f83613256565b909155506040805160a0810182528281523360208083019182528284018881526060840188905260006080850181905286815260069092529390208251815590516001820180546001600160a01b0319166001600160a01b0390921691909117905591519293509160028201906120b690826132fa565b50606082015160038201906120cb90826132fa565b50608082015160048201805460ff191660018360038111156120ef576120ef612da2565b021790555050336000908152600760205260408082208490556009805460018101825592527f6e1540171b6c0c960b71a7020d9f60077f6af931a8bbf590da0223dacf75c7af90910183905551600b915061214b908490613282565b9081526040519081900360209081018220805460018101825560009182529190200180546001600160a01b03191633908117909155907fbe67612da0558984c1979cc83087e59081f43c1d1b4f6a5a42aab3020a017b4090611b7990869086906133ba565b606060088054806020026020016040519081016040528092919081815260200182805480156121fe57602002820191906000526020600020905b8154815260200190600101908083116121ea575b5050505050905090565b606060098054806020026020016040519081016040528092919081815260200182805480156121fe57602002820191906000526020600020908154815260200190600101908083116121ea575050505050905090565b600081815260056020526040812054819081908190819081908190810361229857604051632b44303360e11b815260040160405180910390fd5b50505060009485525050600560208190526040909320805460018201546002830154600384015460048501549785015460069095015493986001600160a01b0393841698939092169650945090929160ff1690565b336000908152600760205260408120549081900361231e5760405163c19f17a960e01b815260040160405180910390fd5b600160008281526006602052604090206004015460ff16600381111561234657612346612da2565b146123645760405163c19f17a960e01b815260040160405180910390fd5b8360000361238557604051631f2a200560e01b815260040160405180910390fd5b336000908152600760209081526040808320548084526006909252822060030180549192916123b3906131f3565b80601f01602080910402602001604051908101604052809291908181526020018280546123df906131f3565b801561242c5780601f106124015761010080835404028352916020019161242c565b820191906000526020600020905b81548152906001019060200180831161240f57829003601f168201915b50505050509050836000036124a557604080518082019091526008815267383937b23ab1b2b960c11b6020918201528151908201207fe8a771116431fd497933c982e9f1e2baea13d28ed5c5faf7e60dd163b2619256146124a057604051636caa20b560e11b815260040160405180910390fd5b612558565b604080518082019091526007815266666163746f727960c81b602091820152815190820120600080516020613446833981519152146124f757604051636caa20b560e11b815260040160405180910390fd5b60008481526004602052604081205490036125255760405163e989fd4560e01b815260040160405180910390fd5b60008481526004602052604090206007015460ff16156125585760405163a84e6b9360e01b815260040160405180910390fd5b600180546000918261256983613256565b9091555060008181526004602052604090208181556001810180546001600160a01b03191633179055909150600281016125a38a826132fa565b5060038101889055600481016125b988826132fa565b506005810186905542600682015560078101805461ffff191690553360008181526008808401602090815260408084208d9055825460018181019094557ff3f7a9fe364faab93b216da50a3214154f22a0a2b415b23a84c8169e8b636ee301879055600a82528084208054938401815584529220018490555183907fe313f3cd9ae486881b5fc4f296f8639c18f70f45e34009de3ad8c25816a095f490612665908d908d908c9061340a565b60405180910390a3505050505050505050565b600080606060006060600080600080600460008b8152602001908152602001600020600001546000036126be57604051630cbdb7b360e41b815260040160405180910390fd5b60008a8152600460208190526040909120805460018201546003830154600584015460068501546007860154600287018054979896976001600160a01b0390961696909590890193929160ff8082169261010090920416908790612721906131f3565b80601f016020809104026020016040519081016040528092919081815260200182805461274d906131f3565b801561279a5780601f1061276f5761010080835404028352916020019161279a565b820191906000526020600020905b81548152906001019060200180831161277d57829003601f168201915b505050505096508480546127ad906131f3565b80601f01602080910402602001604051908101604052809291908181526020018280546127d9906131f3565b80156128265780601f106127fb57610100808354040283529160200191612826565b820191906000526020600020905b81548152906001019060200180831161280957829003601f168201915b50505050509450995099509950995099509950995099509950509193959799909294969850565b60008281526004602090815260408083206001600160a01b03851684526008019091529020545b92915050565b604080518082019091526008815267383937b23ab1b2b960c11b6020918201528251908301206000907fe8a771116431fd497933c982e9f1e2baea13d28ed5c5faf7e60dd163b26192561480156129025750604080518082019091526007815266666163746f727960c81b602091820152825190830120600080516020613446833981519152145b8061298d5750604080518082019091526007815266666163746f727960c81b60209182015283519084012060008051602061344683398151915214801561298d57506040805180820190915260088152673932ba30b4b632b960c11b6020918201528251908301207f35720142b9ab11c25c53ca13befe9fb19c96957cb76a5f2f70547e5eb0c912d7145b80612a2b57506040805180820190915260088152673932ba30b4b632b960c11b6020918201528351908401207f35720142b9ab11c25c53ca13befe9fb19c96957cb76a5f2f70547e5eb0c912d7148015612a2b575060408051808201909152600881526731b7b739bab6b2b960c11b6020918201528251908301207fd4af56a6cb216435050293f7c860ecd82c7b78b5ce1cf71dcb725bc26a5c8cab145b905080612a4b57604051630ea3ffc960e41b815260040160405180910390fd5b505050565b6001600160a01b0382166000908152600a60205260408120905b8154811015612aae5782828281548110612a8657612a8661342f565b906000526020600020015403612a9c5750505050565b80612aa681613256565b915050612a6a565b50805460018101825560009182526020909120015550565b604080518082019091526008815267383937b23ab1b2b960c11b6020918201528151908201207fe8a771116431fd497933c982e9f1e2baea13d28ed5c5faf7e60dd163b261925614158015612b61575060408051808201909152600981526831b2b93a34b334b2b960b91b6020918201528151908201207fffc7b8a776d34ae961f5e4f3015c40a89631193f5db617d4b7bb4cef5318c88114155b8015612b9f5750604080518082019091526007815266666163746f727960c81b60209182015281519082012060008051602061344683398151915214155b8015612bf057506040805180820190915260088152673932ba30b4b632b960c11b6020918201528151908201207f35720142b9ab11c25c53ca13befe9fb19c96957cb76a5f2f70547e5eb0c912d714155b8015612c41575060408051808201909152600881526731b7b739bab6b2b960c11b6020918201528151908201207fd4af56a6cb216435050293f7c860ecd82c7b78b5ce1cf71dcb725bc26a5c8cab14155b15612c5f57604051636caa20b560e11b815260040160405180910390fd5b50565b60008060408385031215612c7557600080fd5b50508035926020909101359150565b80356001600160a01b0381168114612c9b57600080fd5b919050565b600080600060608486031215612cb557600080fd5b612cbe84612c84565b95602085013595506040909401359392505050565b600060208284031215612ce557600080fd5b5035919050565b600060208284031215612cfe57600080fd5b612d0782612c84565b9392505050565b6020808252825182820181905260009190848201906040850190845b81811015612d4657835183529284019291840191600101612d2a565b50909695505050505050565b60005b83811015612d6d578181015183820152602001612d55565b50506000910152565b60008151808452612d8e816020860160208601612d52565b601f01601f19169290920160200192915050565b634e487b7160e01b600052602160045260246000fd5b60048110612dc857612dc8612da2565b9052565b8581526001600160a01b038516602082015260a060408201819052600090612df690830186612d76565b8281036060840152612e088186612d76565b915050612e186080830184612db8565b9695505050505050565b8981526001600160a01b038916602082015261012060408201819052600090612e4d8382018b612d76565b90508860608401528281036080840152612e678189612d76565b60a0840197909752505060c081019390935290151560e083015215156101009091015295945050505050565b634e487b7160e01b600052604160045260246000fd5b600082601f830112612eba57600080fd5b813567ffffffffffffffff80821115612ed557612ed5612e93565b604051601f8301601f19908116603f01168101908282118183101715612efd57612efd612e93565b81604052838152866020858801011115612f1657600080fd5b836020870160208301376000602085830101528094505050505092915050565b600060208284031215612f4857600080fd5b813567ffffffffffffffff811115612f5f57600080fd5b612f6b84828501612ea9565b949350505050565b6020808252825182820181905260009190848201906040850190845b81811015612d465783516001600160a01b031683529284019291840191600101612f8f565b60008060408385031215612fc757600080fd5b612fd083612c84565b9150602083013560048110612fe457600080fd5b809150509250929050565b8781526001600160a01b03878116602083015286166040820152606081018590526080810184905260a0810183905260e081016003831061303257613032612da2565b8260c083015298975050505050505050565b60008060006060848603121561305957600080fd5b83359250602084013567ffffffffffffffff8082111561307857600080fd5b61308487838801612ea9565b9350604086013591508082111561309a57600080fd5b506130a786828701612ea9565b9150509250925092565b600080604083850312156130c457600080fd5b82359150602083013567ffffffffffffffff8111156130e257600080fd5b6130ee85828601612ea9565b9150509250929050565b6000806040838503121561310b57600080fd5b823567ffffffffffffffff8082111561312357600080fd5b61312f86838701612ea9565b9350602085013591508082111561314557600080fd5b506130ee85828601612ea9565b6000806000806080858703121561316857600080fd5b843567ffffffffffffffff8082111561318057600080fd5b61318c88838901612ea9565b95506020870135945060408701359150808211156131a957600080fd5b506131b687828801612ea9565b949793965093946060013593505050565b600080604083850312156131da57600080fd5b823591506131ea60208401612c84565b90509250929050565b600181811c9082168061320757607f821691505b60208210810361322757634e487b7160e01b600052602260045260246000fd5b50919050565b634e487b7160e01b600052601160045260246000fd5b818103818111156128745761287461322d565b6000600182016132685761326861322d565b5060010190565b808201808211156128745761287461322d565b60008251613294818460208701612d52565b9190910192915050565b602081016128748284612db8565b601f821115612a4b57600081815260208120601f850160051c810160208610156132d35750805b601f850160051c820191505b818110156132f2578281556001016132df565b505050505050565b815167ffffffffffffffff81111561331457613314612e93565b6133288161332284546131f3565b846132ac565b602080601f83116001811461335d57600084156133455750858301515b600019600386901b1c1916600185901b1785556132f2565b600085815260208120601f198616915b8281101561338c5788860151825594840194600190910190840161336d565b50858210156133aa5787850151600019600388901b60f8161c191681555b5050505050600190811b01905550565b6040815260006133cd6040830185612d76565b82810360208401526133df8185612d76565b95945050505050565b6040815260006133fb6040830185612d76565b90508260208301529392505050565b60608152600061341d6060830186612d76565b60208301949094525060400152919050565b634e487b7160e01b600052603260045260246000fdfee366a98476020cb9ff8cc566d0cdeac414e546d2e7ede445f4e7032a4272c771a264697066735822122043f5882ae98ccddf74b88e70c695e51752cfdb3a0b1262a49efc8668c20e2d4564736f6c63430008130033","linkReferences":{}},"methodIdentifiers":{"acceptTransfer(uint256)":"274fae7c","addressToUserId(address)":"b5ffbbcc","admin()":"f851a440","burnToken(uint256)":"7b47ec1a","certifyToken(uint256,string)":"9d22623c","changeStatusUser(address,uint8)":"8782dc00","consumeRawMaterial(uint256,uint256)":"060965bb","createToken(string,uint256,string,uint256)":"d67b2d08","getAllTokenIds()":"bdbed722","getAllUserIds()":"be4906c9","getToken(uint256)":"e4b50cb8","getTokenBalance(uint256,address)":"ef57e2d2","getTransfer(uint256)":"c16fe907","getUserAddressesByRole(string)":"7a5f839b","getUserInfo(address)":"6386c1c7","getUserTokenIds(address)":"92ddf23c","getUserTransfers(address)":"335d3410","isAdmin(address)":"24d7806c","nextTokenId()":"75794a3c","nextTransferId()":"b85b381b","nextUserId()":"a1e6a255","redeemProduct(uint256,uint256)":"3e335b7a","rejectTransfer(uint256)":"12effc32","requestUserRole(string,string)":"ab114615","tokens(uint256)":"4f64b2be","transfer(address,uint256,uint256)":"095bcdb6","transfers(uint256)":"9377d711","updateToken(uint256,string,string)":"99911420","users(uint256)":"365b98b2"},"id":21}