{"abi":[{"type":"constructor","inputs":[],"stateMutability":"nonpayable"},{"type":"function","name":"acceptTransfer","inputs":[{"name":"transferId","type":"uint256","internalType":"uint256"}],"outputs":[],"stateMutability":"nonpayable"},{"type":"function","name":"addressToUserId","inputs":[{"name":"","type":"address","internalType":"address"}],"outputs":[{"name":"","type":"uint256","internalType":"uint256"}],"stateMutability":"view"},{"type":"function","name":"admin","inputs":[],"outputs":[{"name":"","type":"address","internalType":"address"}],"stateMutability":"view"},{"type":"function","name":"burnToken","inputs":[{"name":"tokenId","type":"uint256","internalType":"uint256"}],"outputs":[],"stateMutability":"nonpayable"},{"type":"function","name":"changeStatusUser","inputs":[{"name":"userAddress","type":"address","internalType":"address"},{"name":"newStatus","type":"uint8","internalType":"enum SupplyChain.UserStatus"}],"outputs":[],"stateMutability":"nonpayable"},{"type":"function","name":"consumeRawMaterial","inputs":[{"name":"tokenId","type":"uint256","internalType":"uint256"},{"name":"amount","type":"uint256","internalType":"uint256"}],"outputs":[],"stateMutability":"nonpayable"},{"type":"function","name":"createToken","inputs":[{"name":"name","type":"string","internalType":"string"},{"name":"totalSupply","type":"uint256","internalType":"uint256"},{"name":"features","type":"string","internalType":"string"},{"name":"parentId","type":"uint256","internalType":"uint256"}],"outputs":[],"stateMutability":"nonpayable"},{"type":"function","name":"getToken","inputs":[{"name":"tokenId","type":"uint256","internalType":"uint256"}],"outputs":[{"name":"id","type":"uint256","internalType":"uint256"},{"name":"creator","type":"address","internalType":"address"},{"name":"name","type":"string","internalType":"string"},{"name":"totalSupply","type":"uint256","internalType":"uint256"},{"name":"features","type":"string","internalType":"string"},{"name":"parentId","type":"uint256","internalType":"uint256"},{"name":"dateCreated","type":"uint256","internalType":"uint256"},{"name":"burned","type":"bool","internalType":"bool"}],"stateMutability":"view"},{"type":"function","name":"getTokenBalance","inputs":[{"name":"tokenId","type":"uint256","internalType":"uint256"},{"name":"userAddress","type":"address","internalType":"address"}],"outputs":[{"name":"","type":"uint256","internalType":"uint256"}],"stateMutability":"view"},{"type":"function","name":"getTransfer","inputs":[{"name":"transferId","type":"uint256","internalType":"uint256"}],"outputs":[{"name":"id","type":"uint256","internalType":"uint256"},{"name":"from","type":"address","internalType":"address"},{"name":"to","type":"address","internalType":"address"},{"name":"tokenId","type":"uint256","internalType":"uint256"},{"name":"dateCreated","type":"uint256","internalType":"uint256"},{"name":"amount","type":"uint256","internalType":"uint256"},{"name":"status","type":"uint8","internalType":"enum SupplyChain.TransferStatus"}],"stateMutability":"view"},{"type":"function","name":"getUserInfo","inputs":[{"name":"userAddress","type":"address","internalType":"address"}],"outputs":[{"name":"id","type":"uint256","internalType":"uint256"},{"name":"userAddr","type":"address","internalType":"address"},{"name":"role","type":"string","internalType":"string"},{"name":"status","type":"uint8","internalType":"enum SupplyChain.UserStatus"}],"stateMutability":"view"},{"type":"function","name":"getUserTokens","inputs":[{"name":"userAddress","type":"address","internalType":"address"}],"outputs":[{"name":"","type":"uint256[]","internalType":"uint256[]"}],"stateMutability":"view"},{"type":"function","name":"getUserTransfers","inputs":[{"name":"userAddress","type":"address","internalType":"address"}],"outputs":[{"name":"","type":"uint256[]","internalType":"uint256[]"}],"stateMutability":"view"},{"type":"function","name":"isAdmin","inputs":[{"name":"userAddress","type":"address","internalType":"address"}],"outputs":[{"name":"","type":"bool","internalType":"bool"}],"stateMutability":"view"},{"type":"function","name":"nextTokenId","inputs":[],"outputs":[{"name":"","type":"uint256","internalType":"uint256"}],"stateMutability":"view"},{"type":"function","name":"nextTransferId","inputs":[],"outputs":[{"name":"","type":"uint256","internalType":"uint256"}],"stateMutability":"view"},{"type":"function","name":"nextUserId","inputs":[],"outputs":[{"name":"","type":"uint256","internalType":"uint256"}],"stateMutability":"view"},{"type":"function","name":"rejectTransfer","inputs":[{"name":"transferId","type":"uint256","internalType":"uint256"}],"outputs":[],"stateMutability":"nonpayable"},{"type":"function","name":"requestUserRole","inputs":[{"name":"role","type":"string","internalType":"string"}],"outputs":[],"stateMutability":"nonpayable"},{"type":"function","name":"tokens","inputs":[{"name":"","type":"uint256","internalType":"uint256"}],"outputs":[{"name":"id","type":"uint256","internalType":"uint256"},{"name":"creator","type":"address","internalType":"address"},{"name":"name","type":"string","internalType":"string"},{"name":"totalSupply","type":"uint256","internalType":"uint256"},{"name":"features","type":"string","internalType":"string"},{"name":"parentId","type":"uint256","internalType":"uint256"},{"name":"dateCreated","type":"uint256","internalType":"uint256"},{"name":"burned","type":"bool","internalType":"bool"}],"stateMutability":"view"},{"type":"function","name":"transfer","inputs":[{"name":"to","type":"address","internalType":"address"},{"name":"tokenId","type":"uint256","internalType":"uint256"},{"name":"amount","type":"uint256","internalType":"uint256"}],"outputs":[],"stateMutability":"nonpayable"},{"type":"function","name":"transfers","inputs":[{"name":"","type":"uint256","internalType":"uint256"}],"outputs":[{"name":"id","type":"uint256","internalType":"uint256"},{"name":"from","type":"address","internalType":"address"},{"name":"to","type":"address","internalType":"address"},{"name":"tokenId","type":"uint256","internalType":"uint256"},{"name":"dateCreated","type":"uint256","internalType":"uint256"},{"name":"amount","type":"uint256","internalType":"uint256"},{"name":"status","type":"uint8","internalType":"enum SupplyChain.TransferStatus"}],"stateMutability":"view"},{"type":"function","name":"updateToken","inputs":[{"name":"tokenId","type":"uint256","internalType":"uint256"},{"name":"name","type":"string","internalType":"string"},{"name":"features","type":"string","internalType":"string"}],"outputs":[],"stateMutability":"nonpayable"},{"type":"function","name":"users","inputs":[{"name":"","type":"uint256","internalType":"uint256"}],"outputs":[{"name":"id","type":"uint256","internalType":"uint256"},{"name":"userAddress","type":"address","internalType":"address"},{"name":"role","type":"string","internalType":"string"},{"name":"status","type":"uint8","internalType":"enum SupplyChain.UserStatus"}],"stateMutability":"view"},{"type":"event","name":"MaterialConsumed","inputs":[{"name":"factory","type":"address","indexed":true,"internalType":"address"},{"name":"tokenId","type":"uint256","indexed":true,"internalType":"uint256"},{"name":"amount","type":"uint256","indexed":false,"internalType":"uint256"}],"anonymous":false},{"type":"event","name":"TokenBurned","inputs":[{"name":"tokenId","type":"uint256","indexed":true,"internalType":"uint256"},{"name":"burner","type":"address","indexed":true,"internalType":"address"}],"anonymous":false},{"type":"event","name":"TokenCreated","inputs":[{"name":"tokenId","type":"uint256","indexed":true,"internalType":"uint256"},{"name":"creator","type":"address","indexed":true,"internalType":"address"},{"name":"name","type":"string","indexed":false,"internalType":"string"},{"name":"totalSupply","type":"uint256","indexed":false,"internalType":"uint256"},{"name":"parentId","type":"uint256","indexed":false,"internalType":"uint256"}],"anonymous":false},{"type":"event","name":"TokenUpdated","inputs":[{"name":"tokenId","type":"uint256","indexed":true,"internalType":"uint256"},{"name":"name","type":"string","indexed":false,"internalType":"string"},{"name":"features","type":"string","indexed":false,"internalType":"string"}],"anonymous":false},{"type":"event","name":"TransferAccepted","inputs":[{"name":"transferId","type":"uint256","indexed":true,"internalType":"uint256"}],"anonymous":false},{"type":"event","name":"TransferRejected","inputs":[{"name":"transferId","type":"uint256","indexed":true,"internalType":"uint256"}],"anonymous":false},{"type":"event","name":"TransferRequested","inputs":[{"name":"transferId","type":"uint256","indexed":true,"internalType":"uint256"},{"name":"from","type":"address","indexed":true,"internalType":"address"},{"name":"to","type":"address","indexed":true,"internalType":"address"},{"name":"tokenId","type":"uint256","indexed":false,"internalType":"uint256"},{"name":"amount","type":"uint256","indexed":false,"internalType":"uint256"}],"anonymous":false},{"type":"event","name":"UserRoleRequested","inputs":[{"name":"user","type":"address","indexed":true,"internalType":"address"},{"name":"role","type":"string","indexed":false,"internalType":"string"}],"anonymous":false},{"type":"event","name":"UserStatusChanged","inputs":[{"name":"user","type":"address","indexed":true,"internalType":"address"},{"name":"status","type":"uint8","indexed":false,"internalType":"enum SupplyChain.UserStatus"}],"anonymous":false},{"type":"error","name":"AlreadyRegistered","inputs":[]},{"type":"error","name":"CannotTransferToSelf","inputs":[]},{"type":"error","name":"InsufficientBalance","inputs":[]},{"type":"error","name":"InvalidRole","inputs":[]},{"type":"error","name":"InvalidTransferDirection","inputs":[]},{"type":"error","name":"NotAdmin","inputs":[]},{"type":"error","name":"NotApproved","inputs":[]},{"type":"error","name":"NotFactory","inputs":[]},{"type":"error","name":"NotRawMaterial","inputs":[]},{"type":"error","name":"NotTokenCreator","inputs":[]},{"type":"error","name":"NotTransferRecipient","inputs":[]},{"type":"error","name":"OnlyConsumerCanBurn","inputs":[]},{"type":"error","name":"ParentTokenBurned","inputs":[]},{"type":"error","name":"ParentTokenNotFound","inputs":[]},{"type":"error","name":"TokenAlreadyBurned","inputs":[]},{"type":"error","name":"TokenNotFound","inputs":[]},{"type":"error","name":"TransferNotFound","inputs":[]},{"type":"error","name":"TransferNotPending","inputs":[]},{"type":"error","name":"UserNotFound","inputs":[]},{"type":"error","name":"ZeroAmount","inputs":[]}],"bytecode":{"object":"0x6080604052600180556001600255600160035534801561001e57600080fd5b50600080546001600160a01b03191633179055612985806100406000396000f3fe608060405234801561001057600080fd5b50600436106101585760003560e01c80638782dc00116100c3578063b85b381b1161007c578063b85b381b1461036c578063c16fe90714610375578063d67b2d0814610388578063e4b50cb81461039b578063ef57e2d2146103ae578063f851a440146103c157600080fd5b80638782dc001461029c5780638b2d19c0146102af5780639377d711146102c25780639991142014610330578063a1e6a25514610343578063b5ffbbcc1461034c57600080fd5b8063365b98b211610115578063365b98b2146102025780634f64b2be14610225578063519dc8d21461024c5780636386c1c71461025f57806375794a3c146102725780637b47ec1a1461028957600080fd5b8063060965bb1461015d578063095bcdb61461017257806312effc321461018557806324d7806c14610198578063274fae7c146101cf578063335d3410146101e2575b600080fd5b61017061016b366004612289565b6103ec565b005b6101706101803660046122c7565b610695565b6101706101933660046122fa565b610b87565b6101ba6101a6366004612313565b6000546001600160a01b0391821691161490565b60405190151581526020015b60405180910390f35b6101706101dd3660046122fa565b610d1c565b6101f56101f0366004612313565b610eb4565b6040516101c69190612335565b6102156102103660046122fa565b610f20565b6040516101c694939291906123e9565b6102386102333660046122fa565b610fde565b6040516101c698979695949392919061242b565b6101f561025a366004612313565b61113e565b61021561026d366004612313565b6111a8565b61027b60015481565b6040519081526020016101c6565b6101706102973660046122fa565b6112b6565b6101706102aa366004612493565b61156a565b6101706102bd366004612571565b61164c565b61031d6102d03660046122fa565b6005602081905260009182526040909120805460018201546002830154600384015460048501549585015460069095015493956001600160a01b0393841695939092169390929060ff1687565b6040516101c697969594939291906125ae565b61017061033e366004612603565b611786565b61027b60035481565b61027b61035a366004612313565b60076020526000908152604090205481565b61027b60025481565b61031d6103833660046122fa565b611912565b610170610396366004612670565b6119a1565b6102386103a93660046122fa565b611d00565b61027b6103bc3660046126e5565b611ec6565b6000546103d4906001600160a01b031681565b6040516001600160a01b0390911681526020016101c6565b336000908152600760205260408120549081900361041d5760405163c19f17a960e01b815260040160405180910390fd5b6001600082815260066020526040902060039081015460ff1690811115610446576104466123bf565b146104645760405163c19f17a960e01b815260040160405180910390fd5b8160000361048557604051631f2a200560e01b815260040160405180910390fd5b336000908152600760209081526040808320548084526006909252909120600201805461056f91906104b690612711565b80601f01602080910402602001604051908101604052809291908181526020018280546104e290612711565b801561052f5780601f106105045761010080835404028352916020019161052f565b820191906000526020600020905b81548152906001019060200180831161051257829003601f168201915b5050604080518082019091526007815266666163746f727960c81b6020918201528451940193909320600080516020612930833981519152149392505050565b61058c57604051631966391b60e11b815260040160405180910390fd5b60008481526004602052604081205490036105ba57604051630cbdb7b360e41b815260040160405180910390fd5b600084815260046020526040902060050154156105ea57604051639f7b298960e01b815260040160405180910390fd5b600084815260046020908152604080832033845260080190915290205483111561062757604051631e9acf1760e31b815260040160405180910390fd5b600084815260046020908152604080832033845260080190915281208054859290610653908490612761565b9091555050604051838152849033907f94851888c9a382ba62b865bfd6b2931c1dab935d4fa3318ed4ab1e8019fa37149060200160405180910390a350505050565b33600090815260076020526040812054908190036106c65760405163c19f17a960e01b815260040160405180910390fd5b6001600082815260066020526040902060039081015460ff16908111156106ef576106ef6123bf565b1461070d5760405163c19f17a960e01b815260040160405180910390fd5b8160000361072e57604051631f2a200560e01b815260040160405180910390fd5b336001600160a01b0385160361075757604051636d6c4ee560e11b815260040160405180910390fd5b600083815260046020526040812054900361078557604051630cbdb7b360e41b815260040160405180910390fd5b60008381526004602052604090206007015460ff16156107b85760405163457af9cb60e11b815260040160405180910390fd5b60008381526004602090815260408083203384526008019091529020548211156107f557604051631e9acf1760e31b815260040160405180910390fd5b33600090815260076020526040808220546001600160a01b0387168352908220549091819003610838576040516319c29a3360e21b815260040160405180910390fd5b6001600082815260066020526040902060039081015460ff1690811115610861576108616123bf565b1461087f5760405163c19f17a960e01b815260040160405180910390fd5b600082815260066020526040902060020180546109bf91906108a090612711565b80601f01602080910402602001604051908101604052809291908181526020018280546108cc90612711565b80156109195780601f106108ee57610100808354040283529160200191610919565b820191906000526020600020905b8154815290600101906020018083116108fc57829003601f168201915b5050506000858152600660205260409020600201805490925061093c9150612711565b80601f016020809104026020016040519081016040528092919081815260200182805461096890612711565b80156109b55780601f1061098a576101008083540402835291602001916109b5565b820191906000526020600020905b81548152906001019060200180831161099857829003601f168201915b5050505050611ef3565b6000858152600460209081526040808320338452600801909152812080548692906109eb908490612761565b90915550506002805460009182610a0183612774565b9190505590506040518060e00160405280828152602001336001600160a01b03168152602001886001600160a01b0316815260200187815260200142815260200186815260200160006002811115610a5b57610a5b6123bf565b90526000828152600560208181526040928390208451815590840151600180830180546001600160a01b039384166001600160a01b0319918216179091559486015160028085018054929094169190961617909155606085015160038301556080850151600483015560a08501519282019290925560c084015160068201805492949193909260ff1916918490811115610af757610af76123bf565b021790555050336000818152600960209081526040808320805460018082018355918552838520018790556001600160a01b038d16808552828520805492830181558552938390200186905580518b81529182018a905291935084917fc8262dc04f8f56abc884e1f58ca17a373610558a6cebc5e927b9e1c4668e5fdf910160405180910390a450505050505050565b3360009081526007602052604081205490819003610bb85760405163c19f17a960e01b815260040160405180910390fd5b6001600082815260066020526040902060039081015460ff1690811115610be157610be16123bf565b14610bff5760405163c19f17a960e01b815260040160405180910390fd5b60008281526005602052604081208054909103610c2f57604051632b44303360e11b815260040160405180910390fd5b6000600682015460ff166002811115610c4a57610c4a6123bf565b14610c68576040516308cd5ef960e31b815260040160405180910390fd5b60028101546001600160a01b03163314610c9557604051632fe6cf8360e21b815260040160405180910390fd5b60068101805460ff1916600217905560058101546003820154600090815260046020908152604080832060018601546001600160a01b0316845260080190915281208054909190610ce790849061278d565b909155505060405183907f1f4f8a94e17d25044030f376d297769c8f9a1a2a0616e36b498a1e7370b5863f90600090a2505050565b3360009081526007602052604081205490819003610d4d5760405163c19f17a960e01b815260040160405180910390fd5b6001600082815260066020526040902060039081015460ff1690811115610d7657610d766123bf565b14610d945760405163c19f17a960e01b815260040160405180910390fd5b60008281526005602052604081208054909103610dc457604051632b44303360e11b815260040160405180910390fd5b6000600682015460ff166002811115610ddf57610ddf6123bf565b14610dfd576040516308cd5ef960e31b815260040160405180910390fd5b60028101546001600160a01b03163314610e2a57604051632fe6cf8360e21b815260040160405180910390fd5b60068101805460ff1916600117905560058101546003820154600090815260046020908152604080832033845260080190915281208054909190610e6f90849061278d565b92505081905550610e843382600301546120c9565b60405183907f91dd4234b45d77221e6eca52c141569a6d0f3b3ffe9b8a18fe8b9aafbc64b44b90600090a2505050565b6001600160a01b038116600090815260096020908152604091829020805483518184028101840190945280845260609392830182828015610f1457602002820191906000526020600020905b815481526020019060010190808311610f00575b50505050509050919050565b60066020526000908152604090208054600182015460028301805492936001600160a01b0390921692610f5290612711565b80601f0160208091040260200160405190810160405280929190818152602001828054610f7e90612711565b8015610fcb5780601f10610fa057610100808354040283529160200191610fcb565b820191906000526020600020905b815481529060010190602001808311610fae57829003601f168201915b5050506003909301549192505060ff1684565b60046020526000908152604090208054600182015460028301805492936001600160a01b039092169261101090612711565b80601f016020809104026020016040519081016040528092919081815260200182805461103c90612711565b80156110895780601f1061105e57610100808354040283529160200191611089565b820191906000526020600020905b81548152906001019060200180831161106c57829003601f168201915b5050505050908060030154908060040180546110a490612711565b80601f01602080910402602001604051908101604052809291908181526020018280546110d090612711565b801561111d5780601f106110f25761010080835404028352916020019161111d565b820191906000526020600020905b81548152906001019060200180831161110057829003601f168201915b50505050600583015460068401546007909401549293909290915060ff1688565b6001600160a01b038116600090815260086020908152604091829020805483518184028101840190945280845260609392830182828015610f145760200282019190600052602060002090815481526020019060010190808311610f005750505050509050919050565b6001600160a01b038116600090815260076020526040812054819060609082908082036111e8576040516319c29a3360e21b815260040160405180910390fd5b60008181526006602052604090208054600182015460038301546002840180546001600160a01b0390931692909160ff1690829061122590612711565b80601f016020809104026020016040519081016040528092919081815260200182805461125190612711565b801561129e5780601f106112735761010080835404028352916020019161129e565b820191906000526020600020905b81548152906001019060200180831161128157829003601f168201915b50505050509150955095509550955050509193509193565b33600090815260076020526040812054908190036112e75760405163c19f17a960e01b815260040160405180910390fd5b6001600082815260066020526040902060039081015460ff1690811115611310576113106123bf565b1461132e5760405163c19f17a960e01b815260040160405180910390fd5b600082815260046020526040812054900361135c57604051630cbdb7b360e41b815260040160405180910390fd5b60008281526004602052604090206007015460ff161561138f5760405163457af9cb60e11b815260040160405180910390fd5b336000908152600760209081526040808320548084526006909252909120600201805461148c91906113c090612711565b80601f01602080910402602001604051908101604052809291908181526020018280546113ec90612711565b80156114395780601f1061140e57610100808354040283529160200191611439565b820191906000526020600020905b81548152906001019060200180831161141c57829003601f168201915b505060408051808201909152600881526731b7b739bab6b2b960c11b60209182015284519401939093207fd4af56a6cb216435050293f7c860ecd82c7b78b5ce1cf71dcb725bc26a5c8cab149392505050565b6114a957604051639e7cf39760e01b815260040160405180910390fd5b600083815260046020908152604080832033845260080190915281205490036114e557604051631e9acf1760e31b815260040160405180910390fd5b60008381526004602081815260408084203385526008810183529084208054908590558785529290915260078101805460ff19166001179055600301805491928392611532908490612761565b9091555050604051339085907f33631bcd0a4d34a7e2c240ab0753d5adfb7284d8ac89dab6876ec785c0cfa0e690600090a350505050565b6000546001600160a01b0316331461159557604051637bfa4b9f60e01b815260040160405180910390fd5b6001600160a01b038216600090815260076020526040812054908190036115cf576040516319c29a3360e21b815260040160405180910390fd5b600081815260066020526040902060039081018054849260ff19909116906001908490811115611601576116016123bf565b0217905550826001600160a01b03167fb3b609c7a5e504a312603e90d906d1667fd5caff0a840ad07bf5709a3ca1a0458360405161163f91906127a0565b60405180910390a2505050565b336000908152600760205260409020541561167a57604051630ea075bf60e21b815260040160405180910390fd5b6116838161213f565b600380546000918261169483612774565b909155506040805160808101825282815233602080830191825282840187815260006060850181905286815260069092529390208251815590516001820180546001600160a01b0319166001600160a01b03909216919091179055915192935091600282019061170490826127fc565b5060608201518160030160006101000a81548160ff0219169083600381111561172f5761172f6123bf565b0217905550503360008181526007602052604090819020849055519091507f713064be2b63db5e6f672d3804bef390205dcf7b58bf7a978b9c31a4d05f39f09061177a9085906128bc565b60405180910390a25050565b33600090815260076020526040812054908190036117b75760405163c19f17a960e01b815260040160405180910390fd5b6001600082815260066020526040902060039081015460ff16908111156117e0576117e06123bf565b146117fe5760405163c19f17a960e01b815260040160405180910390fd5b600084815260046020526040812054900361182c57604051630cbdb7b360e41b815260040160405180910390fd5b60008481526004602052604090206007015460ff161561185f5760405163457af9cb60e11b815260040160405180910390fd5b6000848152600460205260409020600101546001600160a01b0316331461189957604051632bef593560e11b815260040160405180910390fd5b60008481526004602052604090206002016118b484826127fc565b506000848152600460208190526040909120016118d183826127fc565b50837fc5e36ddfbe711be5c25758a32bea8fd9cd46f64f9a31935b2fc74f17b479e08d84846040516119049291906128cf565b60405180910390a250505050565b600081815260056020526040812054819081908190819081908190810361194c57604051632b44303360e11b815260040160405180910390fd5b50505060009485525050600560208190526040909320805460018201546002830154600384015460048501549785015460069095015493986001600160a01b0393841698939092169650945090929160ff1690565b33600090815260076020526040812054908190036119d25760405163c19f17a960e01b815260040160405180910390fd5b6001600082815260066020526040902060039081015460ff16908111156119fb576119fb6123bf565b14611a195760405163c19f17a960e01b815260040160405180910390fd5b83600003611a3a57604051631f2a200560e01b815260040160405180910390fd5b33600090815260076020908152604080832054808452600690925282206002018054919291611a6890612711565b80601f0160208091040260200160405190810160405280929190818152602001828054611a9490612711565b8015611ae15780601f10611ab657610100808354040283529160200191611ae1565b820191906000526020600020905b815481529060010190602001808311611ac457829003601f168201915b5050505050905083600003611b5a57604080518082019091526008815267383937b23ab1b2b960c11b6020918201528151908201207fe8a771116431fd497933c982e9f1e2baea13d28ed5c5faf7e60dd163b261925614611b5557604051636caa20b560e11b815260040160405180910390fd5b611c0d565b604080518082019091526007815266666163746f727960c81b60209182015281519082012060008051602061293083398151915214611bac57604051636caa20b560e11b815260040160405180910390fd5b6000848152600460205260408120549003611bda5760405163e989fd4560e01b815260040160405180910390fd5b60008481526004602052604090206007015460ff1615611c0d5760405163a84e6b9360e01b815260040160405180910390fd5b6001805460009182611c1e83612774565b9091555060008181526004602052604090208181556001810180546001600160a01b0319163317905590915060028101611c588a826127fc565b506003810188905560048101611c6e88826127fc565b506005810186905542600682015560078101805460ff191690553360008181526008808401602090815260408084208d9055918152818320805460018101825590845292209091018490555183907fe313f3cd9ae486881b5fc4f296f8639c18f70f45e34009de3ad8c25816a095f490611ced908d908d908c906128f4565b60405180910390a3505050505050505050565b6000806060600060606000806000600460008a815260200190815260200160002060000154600003611d4557604051630cbdb7b360e41b815260040160405180910390fd5b6000898152600460208190526040909120805460018201546003830154600584015460068501546007860154600287018054979896976001600160a01b0390961696909590890193929160ff16908690611d9e90612711565b80601f0160208091040260200160405190810160405280929190818152602001828054611dca90612711565b8015611e175780601f10611dec57610100808354040283529160200191611e17565b820191906000526020600020905b815481529060010190602001808311611dfa57829003601f168201915b50505050509550838054611e2a90612711565b80601f0160208091040260200160405190810160405280929190818152602001828054611e5690612711565b8015611ea35780601f10611e7857610100808354040283529160200191611ea3565b820191906000526020600020905b815481529060010190602001808311611e8657829003601f168201915b505050505093509850985098509850985098509850985050919395975091939597565b60008281526004602090815260408083206001600160a01b03851684526008019091529020545b92915050565b604080518082019091526008815267383937b23ab1b2b960c11b6020918201528251908301206000907fe8a771116431fd497933c982e9f1e2baea13d28ed5c5faf7e60dd163b2619256148015611f7b5750604080518082019091526007815266666163746f727960c81b602091820152825190830120600080516020612930833981519152145b806120065750604080518082019091526007815266666163746f727960c81b60209182015283519084012060008051602061293083398151915214801561200657506040805180820190915260088152673932ba30b4b632b960c11b6020918201528251908301207f35720142b9ab11c25c53ca13befe9fb19c96957cb76a5f2f70547e5eb0c912d7145b806120a457506040805180820190915260088152673932ba30b4b632b960c11b6020918201528351908401207f35720142b9ab11c25c53ca13befe9fb19c96957cb76a5f2f70547e5eb0c912d71480156120a4575060408051808201909152600881526731b7b739bab6b2b960c11b6020918201528251908301207fd4af56a6cb216435050293f7c860ecd82c7b78b5ce1cf71dcb725bc26a5c8cab145b9050806120c457604051630ea3ffc960e41b815260040160405180910390fd5b505050565b6001600160a01b0382166000908152600860205260408120905b815481101561212757828282815481106120ff576120ff612919565b9060005260206000200154036121155750505050565b8061211f81612774565b9150506120e3565b50805460018101825560009182526020909120015550565b604080518082019091526008815267383937b23ab1b2b960c11b6020918201528151908201207fe8a771116431fd497933c982e9f1e2baea13d28ed5c5faf7e60dd163b2619256141580156121c65750604080518082019091526007815266666163746f727960c81b60209182015281519082012060008051602061293083398151915214155b801561221757506040805180820190915260088152673932ba30b4b632b960c11b6020918201528151908201207f35720142b9ab11c25c53ca13befe9fb19c96957cb76a5f2f70547e5eb0c912d714155b8015612268575060408051808201909152600881526731b7b739bab6b2b960c11b6020918201528151908201207fd4af56a6cb216435050293f7c860ecd82c7b78b5ce1cf71dcb725bc26a5c8cab14155b1561228657604051636caa20b560e11b815260040160405180910390fd5b50565b6000806040838503121561229c57600080fd5b50508035926020909101359150565b80356001600160a01b03811681146122c257600080fd5b919050565b6000806000606084860312156122dc57600080fd5b6122e5846122ab565b95602085013595506040909401359392505050565b60006020828403121561230c57600080fd5b5035919050565b60006020828403121561232557600080fd5b61232e826122ab565b9392505050565b6020808252825182820181905260009190848201906040850190845b8181101561236d57835183529284019291840191600101612351565b50909695505050505050565b6000815180845260005b8181101561239f57602081850181015186830182015201612383565b506000602082860101526020601f19601f83011685010191505092915050565b634e487b7160e01b600052602160045260246000fd5b600481106123e5576123e56123bf565b9052565b8481526001600160a01b038416602082015260806040820181905260009061241390830185612379565b905061242260608301846123d5565b95945050505050565b8881526001600160a01b0388166020820152610100604082018190526000906124568382018a612379565b905087606084015282810360808401526124708188612379565b60a0840196909652505060c0810192909252151560e09091015295945050505050565b600080604083850312156124a657600080fd5b6124af836122ab565b91506020830135600481106124c357600080fd5b809150509250929050565b634e487b7160e01b600052604160045260246000fd5b600082601f8301126124f557600080fd5b813567ffffffffffffffff80821115612510576125106124ce565b604051601f8301601f19908116603f01168101908282118183101715612538576125386124ce565b8160405283815286602085880101111561255157600080fd5b836020870160208301376000602085830101528094505050505092915050565b60006020828403121561258357600080fd5b813567ffffffffffffffff81111561259a57600080fd5b6125a6848285016124e4565b949350505050565b8781526001600160a01b03878116602083015286166040820152606081018590526080810184905260a0810183905260e08101600383106125f1576125f16123bf565b8260c083015298975050505050505050565b60008060006060848603121561261857600080fd5b83359250602084013567ffffffffffffffff8082111561263757600080fd5b612643878388016124e4565b9350604086013591508082111561265957600080fd5b50612666868287016124e4565b9150509250925092565b6000806000806080858703121561268657600080fd5b843567ffffffffffffffff8082111561269e57600080fd5b6126aa888389016124e4565b95506020870135945060408701359150808211156126c757600080fd5b506126d4878288016124e4565b949793965093946060013593505050565b600080604083850312156126f857600080fd5b82359150612708602084016122ab565b90509250929050565b600181811c9082168061272557607f821691505b60208210810361274557634e487b7160e01b600052602260045260246000fd5b50919050565b634e487b7160e01b600052601160045260246000fd5b81810381811115611eed57611eed61274b565b6000600182016127865761278661274b565b5060010190565b80820180821115611eed57611eed61274b565b60208101611eed82846123d5565b601f8211156120c457600081815260208120601f850160051c810160208610156127d55750805b601f850160051c820191505b818110156127f4578281556001016127e1565b505050505050565b815167ffffffffffffffff811115612816576128166124ce565b61282a816128248454612711565b846127ae565b602080601f83116001811461285f57600084156128475750858301515b600019600386901b1c1916600185901b1785556127f4565b600085815260208120601f198616915b8281101561288e5788860151825594840194600190910190840161286f565b50858210156128ac5787850151600019600388901b60f8161c191681555b5050505050600190811b01905550565b60208152600061232e6020830184612379565b6040815260006128e26040830185612379565b82810360208401526124228185612379565b6060815260006129076060830186612379565b60208301949094525060400152919050565b634e487b7160e01b600052603260045260246000fdfee366a98476020cb9ff8cc566d0cdeac414e546d2e7ede445f4e7032a4272c771a264697066735822122041322b23e2dd9e31c36b6f813562a255bc88b1ced6e27b57b8841a99f08f274e64736f6c63430008130033","linkReferences":{}},"methodIdentifiers":{"acceptTransfer(uint256)":"274fae7c","addressToUserId(address)":"b5ffbbcc","admin()":"f851a440","burnToken(uint256)":"7b47ec1a","changeStatusUser(address,uint8)":"8782dc00","consumeRawMaterial(uint256,uint256)":"060965bb","createToken(string,uint256,string,uint256)":"d67b2d08","getToken(uint256)":"e4b50cb8","getTokenBalance(uint256,address)":"ef57e2d2","getTransfer(uint256)":"c16fe907","getUserInfo(address)":"6386c1c7","getUserTokens(address)":"519dc8d2","getUserTransfers(address)":"335d3410","isAdmin(address)":"24d7806c","nextTokenId()":"75794a3c","nextTransferId()":"b85b381b","nextUserId()":"a1e6a255","rejectTransfer(uint256)":"12effc32","requestUserRole(string)":"8b2d19c0","tokens(uint256)":"4f64b2be","transfer(address,uint256,uint256)":"095bcdb6","transfers(uint256)":"9377d711","updateToken(uint256,string,string)":"99911420","users(uint256)":"365b98b2"},"id":21}